{
  "_format": "hh3-artifact-1",
  "contractName": "IDRToken",
  "sourceName": "contracts/IDRStable.sol",
  "abi": [
    {
      "inputs": [
        {
          "internalType": "address",
          "name": "initialOwner",
          "type": "address"
        }
      ],
      "stateMutability": "nonpayable",
      "type": "constructor"
    },
    {
      "inputs": [],
      "name": "ECDSAInvalidSignature",
      "type": "error"
    },
    {
      "inputs": [
        {
          "internalType": "uint256",
          "name": "length",
          "type": "uint256"
        }
      ],
      "name": "ECDSAInvalidSignatureLength",
      "type": "error"
    },
    {
      "inputs": [
        {
          "internalType": "bytes32",
          "name": "s",
          "type": "bytes32"
        }
      ],
      "name": "ECDSAInvalidSignatureS",
      "type": "error"
    },
    {
      "inputs": [
        {
          "internalType": "address",
          "name": "spender",
          "type": "address"
        },
        {
          "internalType": "uint256",
          "name": "allowance",
          "type": "uint256"
        },
        {
          "internalType": "uint256",
          "name": "needed",
          "type": "uint256"
        }
      ],
      "name": "ERC20InsufficientAllowance",
      "type": "error"
    },
    {
      "inputs": [
        {
          "internalType": "address",
          "name": "sender",
          "type": "address"
        },
        {
          "internalType": "uint256",
          "name": "balance",
          "type": "uint256"
        },
        {
          "internalType": "uint256",
          "name": "needed",
          "type": "uint256"
        }
      ],
      "name": "ERC20InsufficientBalance",
      "type": "error"
    },
    {
      "inputs": [
        {
          "internalType": "address",
          "name": "approver",
          "type": "address"
        }
      ],
      "name": "ERC20InvalidApprover",
      "type": "error"
    },
    {
      "inputs": [
        {
          "internalType": "address",
          "name": "receiver",
          "type": "address"
        }
      ],
      "name": "ERC20InvalidReceiver",
      "type": "error"
    },
    {
      "inputs": [
        {
          "internalType": "address",
          "name": "sender",
          "type": "address"
        }
      ],
      "name": "ERC20InvalidSender",
      "type": "error"
    },
    {
      "inputs": [
        {
          "internalType": "address",
          "name": "spender",
          "type": "address"
        }
      ],
      "name": "ERC20InvalidSpender",
      "type": "error"
    },
    {
      "inputs": [
        {
          "internalType": "uint256",
          "name": "deadline",
          "type": "uint256"
        }
      ],
      "name": "ERC2612ExpiredSignature",
      "type": "error"
    },
    {
      "inputs": [
        {
          "internalType": "address",
          "name": "signer",
          "type": "address"
        },
        {
          "internalType": "address",
          "name": "owner",
          "type": "address"
        }
      ],
      "name": "ERC2612InvalidSigner",
      "type": "error"
    },
    {
      "inputs": [
        {
          "internalType": "address",
          "name": "account",
          "type": "address"
        },
        {
          "internalType": "uint256",
          "name": "currentNonce",
          "type": "uint256"
        }
      ],
      "name": "InvalidAccountNonce",
      "type": "error"
    },
    {
      "inputs": [],
      "name": "InvalidShortString",
      "type": "error"
    },
    {
      "inputs": [
        {
          "internalType": "address",
          "name": "owner",
          "type": "address"
        }
      ],
      "name": "OwnableInvalidOwner",
      "type": "error"
    },
    {
      "inputs": [
        {
          "internalType": "address",
          "name": "account",
          "type": "address"
        }
      ],
      "name": "OwnableUnauthorizedAccount",
      "type": "error"
    },
    {
      "inputs": [
        {
          "internalType": "string",
          "name": "str",
          "type": "string"
        }
      ],
      "name": "StringTooLong",
      "type": "error"
    },
    {
      "anonymous": false,
      "inputs": [
        {
          "indexed": true,
          "internalType": "address",
          "name": "owner",
          "type": "address"
        },
        {
          "indexed": true,
          "internalType": "address",
          "name": "spender",
          "type": "address"
        },
        {
          "indexed": false,
          "internalType": "uint256",
          "name": "value",
          "type": "uint256"
        }
      ],
      "name": "Approval",
      "type": "event"
    },
    {
      "anonymous": false,
      "inputs": [],
      "name": "EIP712DomainChanged",
      "type": "event"
    },
    {
      "anonymous": false,
      "inputs": [
        {
          "indexed": true,
          "internalType": "address",
          "name": "previousOwner",
          "type": "address"
        },
        {
          "indexed": true,
          "internalType": "address",
          "name": "newOwner",
          "type": "address"
        }
      ],
      "name": "OwnershipTransferred",
      "type": "event"
    },
    {
      "anonymous": false,
      "inputs": [
        {
          "indexed": true,
          "internalType": "address",
          "name": "from",
          "type": "address"
        },
        {
          "indexed": true,
          "internalType": "address",
          "name": "to",
          "type": "address"
        },
        {
          "indexed": false,
          "internalType": "uint256",
          "name": "value",
          "type": "uint256"
        }
      ],
      "name": "Transfer",
      "type": "event"
    },
    {
      "inputs": [],
      "name": "DOMAIN_SEPARATOR",
      "outputs": [
        {
          "internalType": "bytes32",
          "name": "",
          "type": "bytes32"
        }
      ],
      "stateMutability": "view",
      "type": "function"
    },
    {
      "inputs": [
        {
          "internalType": "address",
          "name": "owner",
          "type": "address"
        },
        {
          "internalType": "address",
          "name": "spender",
          "type": "address"
        }
      ],
      "name": "allowance",
      "outputs": [
        {
          "internalType": "uint256",
          "name": "",
          "type": "uint256"
        }
      ],
      "stateMutability": "view",
      "type": "function"
    },
    {
      "inputs": [
        {
          "internalType": "address",
          "name": "spender",
          "type": "address"
        },
        {
          "internalType": "uint256",
          "name": "value",
          "type": "uint256"
        }
      ],
      "name": "approve",
      "outputs": [
        {
          "internalType": "bool",
          "name": "",
          "type": "bool"
        }
      ],
      "stateMutability": "nonpayable",
      "type": "function"
    },
    {
      "inputs": [
        {
          "internalType": "address",
          "name": "account",
          "type": "address"
        }
      ],
      "name": "balanceOf",
      "outputs": [
        {
          "internalType": "uint256",
          "name": "",
          "type": "uint256"
        }
      ],
      "stateMutability": "view",
      "type": "function"
    },
    {
      "inputs": [
        {
          "internalType": "uint256",
          "name": "value",
          "type": "uint256"
        }
      ],
      "name": "burn",
      "outputs": [],
      "stateMutability": "nonpayable",
      "type": "function"
    },
    {
      "inputs": [
        {
          "internalType": "address",
          "name": "from",
          "type": "address"
        },
        {
          "internalType": "uint256",
          "name": "amount",
          "type": "uint256"
        }
      ],
      "name": "burn",
      "outputs": [],
      "stateMutability": "nonpayable",
      "type": "function"
    },
    {
      "inputs": [
        {
          "internalType": "address",
          "name": "account",
          "type": "address"
        },
        {
          "internalType": "uint256",
          "name": "value",
          "type": "uint256"
        }
      ],
      "name": "burnFrom",
      "outputs": [],
      "stateMutability": "nonpayable",
      "type": "function"
    },
    {
      "inputs": [],
      "name": "decimals",
      "outputs": [
        {
          "internalType": "uint8",
          "name": "",
          "type": "uint8"
        }
      ],
      "stateMutability": "view",
      "type": "function"
    },
    {
      "inputs": [],
      "name": "eip712Domain",
      "outputs": [
        {
          "internalType": "bytes1",
          "name": "fields",
          "type": "bytes1"
        },
        {
          "internalType": "string",
          "name": "name",
          "type": "string"
        },
        {
          "internalType": "string",
          "name": "version",
          "type": "string"
        },
        {
          "internalType": "uint256",
          "name": "chainId",
          "type": "uint256"
        },
        {
          "internalType": "address",
          "name": "verifyingContract",
          "type": "address"
        },
        {
          "internalType": "bytes32",
          "name": "salt",
          "type": "bytes32"
        },
        {
          "internalType": "uint256[]",
          "name": "extensions",
          "type": "uint256[]"
        }
      ],
      "stateMutability": "view",
      "type": "function"
    },
    {
      "inputs": [
        {
          "internalType": "address",
          "name": "to",
          "type": "address"
        },
        {
          "internalType": "uint256",
          "name": "amount",
          "type": "uint256"
        }
      ],
      "name": "mint",
      "outputs": [],
      "stateMutability": "nonpayable",
      "type": "function"
    },
    {
      "inputs": [],
      "name": "name",
      "outputs": [
        {
          "internalType": "string",
          "name": "",
          "type": "string"
        }
      ],
      "stateMutability": "view",
      "type": "function"
    },
    {
      "inputs": [
        {
          "internalType": "address",
          "name": "owner",
          "type": "address"
        }
      ],
      "name": "nonces",
      "outputs": [
        {
          "internalType": "uint256",
          "name": "",
          "type": "uint256"
        }
      ],
      "stateMutability": "view",
      "type": "function"
    },
    {
      "inputs": [],
      "name": "owner",
      "outputs": [
        {
          "internalType": "address",
          "name": "",
          "type": "address"
        }
      ],
      "stateMutability": "view",
      "type": "function"
    },
    {
      "inputs": [
        {
          "internalType": "address",
          "name": "owner",
          "type": "address"
        },
        {
          "internalType": "address",
          "name": "spender",
          "type": "address"
        },
        {
          "internalType": "uint256",
          "name": "value",
          "type": "uint256"
        },
        {
          "internalType": "uint256",
          "name": "deadline",
          "type": "uint256"
        },
        {
          "internalType": "uint8",
          "name": "v",
          "type": "uint8"
        },
        {
          "internalType": "bytes32",
          "name": "r",
          "type": "bytes32"
        },
        {
          "internalType": "bytes32",
          "name": "s",
          "type": "bytes32"
        }
      ],
      "name": "permit",
      "outputs": [],
      "stateMutability": "nonpayable",
      "type": "function"
    },
    {
      "inputs": [],
      "name": "renounceOwnership",
      "outputs": [],
      "stateMutability": "nonpayable",
      "type": "function"
    },
    {
      "inputs": [],
      "name": "symbol",
      "outputs": [
        {
          "internalType": "string",
          "name": "",
          "type": "string"
        }
      ],
      "stateMutability": "view",
      "type": "function"
    },
    {
      "inputs": [],
      "name": "totalSupply",
      "outputs": [
        {
          "internalType": "uint256",
          "name": "",
          "type": "uint256"
        }
      ],
      "stateMutability": "view",
      "type": "function"
    },
    {
      "inputs": [
        {
          "internalType": "address",
          "name": "to",
          "type": "address"
        },
        {
          "internalType": "uint256",
          "name": "value",
          "type": "uint256"
        }
      ],
      "name": "transfer",
      "outputs": [
        {
          "internalType": "bool",
          "name": "",
          "type": "bool"
        }
      ],
      "stateMutability": "nonpayable",
      "type": "function"
    },
    {
      "inputs": [
        {
          "internalType": "address",
          "name": "from",
          "type": "address"
        },
        {
          "internalType": "address",
          "name": "to",
          "type": "address"
        },
        {
          "internalType": "uint256",
          "name": "value",
          "type": "uint256"
        }
      ],
      "name": "transferFrom",
      "outputs": [
        {
          "internalType": "bool",
          "name": "",
          "type": "bool"
        }
      ],
      "stateMutability": "nonpayable",
      "type": "function"
    },
    {
      "inputs": [
        {
          "internalType": "address",
          "name": "newOwner",
          "type": "address"
        }
      ],
      "name": "transferOwnership",
      "outputs": [],
      "stateMutability": "nonpayable",
      "type": "function"
    }
  ],
  "bytecode": "0x610160604052348015610010575f5ffd5b5060405161159e38038061159e83398101604081905261002f91610277565b6040518060400160405280600881526020016724a2292a37b5b2b760c11b81525080604051806040016040528060018152602001603160f81b815250836040518060400160405280600881526020016724a2292a37b5b2b760c11b8152506040518060400160405280600381526020016224a22960e91b81525081600390816100b8919061033c565b5060046100c5828261033c565b5050506001600160a01b0381166100f657604051631e4fbdf760e01b81525f60048201526024015b60405180910390fd5b6100ff816101b7565b5061010b826006610208565b6101205261011a816007610208565b61014052815160208084019190912060e052815190820120610100524660a0526101a660e05161010051604080517f8b73c3c69bb8fe3d512ecc4cf759cc79239f7b179b0ffacaa9a75d522b39400f60208201529081019290925260608201524660808201523060a08201525f9060c00160405160208183030381529060405280519060200120905090565b60805250503060c0525061044e9050565b600580546001600160a01b038381166001600160a01b0319831681179093556040519116919082907f8be0079c531659141344cd1fd0a4f28419497f9722a3daafe3b4186f6b6457e0905f90a35050565b5f6020835110156102235761021c8361023a565b9050610234565b8161022e848261033c565b5060ff90505b92915050565b5f5f829050601f81511115610264578260405163305a27a960e01b81526004016100ed91906103f6565b805161026f8261042b565b179392505050565b5f60208284031215610287575f5ffd5b81516001600160a01b038116811461029d575f5ffd5b9392505050565b634e487b7160e01b5f52604160045260245ffd5b600181811c908216806102cc57607f821691505b6020821081036102ea57634e487b7160e01b5f52602260045260245ffd5b50919050565b601f82111561033757805f5260205f20601f840160051c810160208510156103155750805b601f840160051c820191505b81811015610334575f8155600101610321565b50505b505050565b81516001600160401b03811115610355576103556102a4565b6103698161036384546102b8565b846102f0565b6020601f82116001811461039b575f83156103845750848201515b5f19600385901b1c1916600184901b178455610334565b5f84815260208120601f198516915b828110156103ca57878501518255602094850194600190920191016103aa565b50848210156103e757868401515f19600387901b60f8161c191681555b50505050600190811b01905550565b602081525f82518060208401528060208501604085015e5f604082850101526040601f19601f83011684010191505092915050565b805160208083015191908110156102ea575f1960209190910360031b1b16919050565b60805160a05160c05160e0516101005161012051610140516110ff61049f5f395f61093301525f61090601525f6107c901525f6107a101525f6106fc01525f61072601525f61075001526110ff5ff3fe608060405234801561000f575f5ffd5b5060043610610127575f3560e01c806379cc6790116100a95780639dc29fac1161006e5780639dc29fac14610264578063a9059cbb14610277578063d505accf1461028a578063dd62ed3e1461029d578063f2fde38b146102d5575f5ffd5b806379cc6790146102005780637ecebe001461021357806384b0196e146102265780638da5cb5b1461024157806395d89b411461025c575f5ffd5b80633644e515116100ef5780633644e515146101a057806340c10f19146101a857806342966c68146101bd57806370a08231146101d0578063715018a6146101f8575f5ffd5b806306fdde031461012b578063095ea7b31461014957806318160ddd1461016c57806323b872dd1461017e578063313ce56714610191575b5f5ffd5b6101336102e8565b6040516101409190610e64565b60405180910390f35b61015c610157366004610e98565b610378565b6040519015158152602001610140565b6002545b604051908152602001610140565b61015c61018c366004610ec0565b610391565b60405160128152602001610140565b6101706103b4565b6101bb6101b6366004610e98565b6103c2565b005b6101bb6101cb366004610efa565b6103d8565b6101706101de366004610f11565b6001600160a01b03165f9081526020819052604090205490565b6101bb6103e5565b6101bb61020e366004610e98565b6103f8565b610170610221366004610f11565b61040d565b61022e61042a565b6040516101409796959493929190610f2a565b6005546040516001600160a01b039091168152602001610140565b61013361046c565b6101bb610272366004610e98565b61047b565b61015c610285366004610e98565b610483565b6101bb610298366004610fc0565b610490565b6101706102ab36600461102d565b6001600160a01b039182165f90815260016020908152604080832093909416825291909152205490565b6101bb6102e3366004610f11565b6105cb565b6060600380546102f79061105e565b80601f01602080910402602001604051908101604052809291908181526020018280546103239061105e565b801561036e5780601f106103455761010080835404028352916020019161036e565b820191905f5260205f20905b81548152906001019060200180831161035157829003601f168201915b5050505050905090565b5f33610385818585610605565b60019150505b92915050565b5f3361039e858285610617565b6103a9858585610693565b506001949350505050565b5f6103bd6106f0565b905090565b6103ca610819565b6103d48282610846565b5050565b6103e2338261087a565b50565b6103ed610819565b6103f65f6108ae565b565b610403823383610617565b6103d4828261087a565b6001600160a01b0381165f9081526008602052604081205461038b565b5f6060805f5f5f606061043b6108ff565b61044361092c565b604080515f80825260208201909252600f60f81b9b939a50919850469750309650945092509050565b6060600480546102f79061105e565b610403610819565b5f33610385818585610693565b834211156104b95760405163313c898160e11b8152600481018590526024015b60405180910390fd5b5f7f6e71edae12b1b97f4d1f60370fef10105fa2faae0126114a169c64845d6126c98888886105048c6001600160a01b03165f90815260086020526040902080546001810190915590565b6040805160208101969096526001600160a01b0394851690860152929091166060840152608083015260a082015260c0810186905260e0016040516020818303038152906040528051906020012090505f61055e82610959565b90505f61056d82878787610985565b9050896001600160a01b0316816001600160a01b0316146105b4576040516325c0072360e11b81526001600160a01b0380831660048301528b1660248201526044016104b0565b6105bf8a8a8a610605565b50505050505050505050565b6105d3610819565b6001600160a01b0381166105fc57604051631e4fbdf760e01b81525f60048201526024016104b0565b6103e2816108ae565b61061283838360016109b1565b505050565b6001600160a01b038381165f908152600160209081526040808320938616835292905220545f1981101561068d578181101561067f57604051637dc7a0d960e11b81526001600160a01b038416600482015260248101829052604481018390526064016104b0565b61068d84848484035f6109b1565b50505050565b6001600160a01b0383166106bc57604051634b637e8f60e11b81525f60048201526024016104b0565b6001600160a01b0382166106e55760405163ec442f0560e01b81525f60048201526024016104b0565b610612838383610a83565b5f306001600160a01b037f00000000000000000000000000000000000000000000000000000000000000001614801561074857507f000000000000000000000000000000000000000000000000000000000000000046145b1561077257507f000000000000000000000000000000000000000000000000000000000000000090565b6103bd604080517f8b73c3c69bb8fe3d512ecc4cf759cc79239f7b179b0ffacaa9a75d522b39400f60208201527f0000000000000000000000000000000000000000000000000000000000000000918101919091527f000000000000000000000000000000000000000000000000000000000000000060608201524660808201523060a08201525f9060c00160405160208183030381529060405280519060200120905090565b6005546001600160a01b031633146103f65760405163118cdaa760e01b81523360048201526024016104b0565b6001600160a01b03821661086f5760405163ec442f0560e01b81525f60048201526024016104b0565b6103d45f8383610a83565b6001600160a01b0382166108a357604051634b637e8f60e11b81525f60048201526024016104b0565b6103d4825f83610a83565b600580546001600160a01b038381166001600160a01b0319831681179093556040519116919082907f8be0079c531659141344cd1fd0a4f28419497f9722a3daafe3b4186f6b6457e0905f90a35050565b60606103bd7f00000000000000000000000000000000000000000000000000000000000000006006610ba9565b60606103bd7f00000000000000000000000000000000000000000000000000000000000000006007610ba9565b5f61038b6109656106f0565b8360405161190160f01b8152600281019290925260228201526042902090565b5f5f5f5f61099588888888610c52565b9250925092506109a58282610d1a565b50909695505050505050565b6001600160a01b0384166109da5760405163e602df0560e01b81525f60048201526024016104b0565b6001600160a01b038316610a0357604051634a1406b160e11b81525f60048201526024016104b0565b6001600160a01b038085165f908152600160209081526040808320938716835292905220829055801561068d57826001600160a01b0316846001600160a01b03167f8c5be1e5ebec7d5bd14f71427d1e84f3dd0314c0f7b2291e5b200ac8c7c3b92584604051610a7591815260200190565b60405180910390a350505050565b6001600160a01b038316610aad578060025f828254610aa29190611096565b90915550610b1d9050565b6001600160a01b0383165f9081526020819052604090205481811015610aff5760405163391434e360e21b81526001600160a01b038516600482015260248101829052604481018390526064016104b0565b6001600160a01b0384165f9081526020819052604090209082900390555b6001600160a01b038216610b3957600280548290039055610b57565b6001600160a01b0382165f9081526020819052604090208054820190555b816001600160a01b0316836001600160a01b03167fddf252ad1be2c89b69c2b068fc378daa952ba7f163c4a11628f55a4df523b3ef83604051610b9c91815260200190565b60405180910390a3505050565b606060ff8314610bc357610bbc83610dd2565b905061038b565b818054610bcf9061105e565b80601f0160208091040260200160405190810160405280929190818152602001828054610bfb9061105e565b8015610c465780601f10610c1d57610100808354040283529160200191610c46565b820191905f5260205f20905b815481529060010190602001808311610c2957829003601f168201915b5050505050905061038b565b5f80807f7fffffffffffffffffffffffffffffff5d576e7357a4501ddfe92f46681b20a0841115610c8b57505f91506003905082610d10565b604080515f808252602082018084528a905260ff891692820192909252606081018790526080810186905260019060a0016020604051602081039080840390855afa158015610cdc573d5f5f3e3d5ffd5b5050604051601f1901519150506001600160a01b038116610d0757505f925060019150829050610d10565b92505f91508190505b9450945094915050565b5f826003811115610d2d57610d2d6110b5565b03610d36575050565b6001826003811115610d4a57610d4a6110b5565b03610d685760405163f645eedf60e01b815260040160405180910390fd5b6002826003811115610d7c57610d7c6110b5565b03610d9d5760405163fce698f760e01b8152600481018290526024016104b0565b6003826003811115610db157610db16110b5565b036103d4576040516335e2f38360e21b8152600481018290526024016104b0565b60605f610dde83610e0f565b6040805160208082528183019092529192505f91906020820181803683375050509182525060208101929092525090565b5f60ff8216601f81111561038b57604051632cd44ac360e21b815260040160405180910390fd5b5f81518084528060208401602086015e5f602082860101526020601f19601f83011685010191505092915050565b602081525f610e766020830184610e36565b9392505050565b80356001600160a01b0381168114610e93575f5ffd5b919050565b5f5f60408385031215610ea9575f5ffd5b610eb283610e7d565b946020939093013593505050565b5f5f5f60608486031215610ed2575f5ffd5b610edb84610e7d565b9250610ee960208501610e7d565b929592945050506040919091013590565b5f60208284031215610f0a575f5ffd5b5035919050565b5f60208284031215610f21575f5ffd5b610e7682610e7d565b60ff60f81b8816815260e060208201525f610f4860e0830189610e36565b8281036040840152610f5a8189610e36565b606084018890526001600160a01b038716608085015260a0840186905283810360c0850152845180825260208087019350909101905f5b81811015610faf578351835260209384019390920191600101610f91565b50909b9a5050505050505050505050565b5f5f5f5f5f5f5f60e0888a031215610fd6575f5ffd5b610fdf88610e7d565b9650610fed60208901610e7d565b95506040880135945060608801359350608088013560ff81168114611010575f5ffd5b9699959850939692959460a0840135945060c09093013592915050565b5f5f6040838503121561103e575f5ffd5b61104783610e7d565b915061105560208401610e7d565b90509250929050565b600181811c9082168061107257607f821691505b60208210810361109057634e487b7160e01b5f52602260045260245ffd5b50919050565b8082018082111561038b57634e487b7160e01b5f52601160045260245ffd5b634e487b7160e01b5f52602160045260245ffdfea2646970667358221220c2b86147ff9899fd1d4ad93c6f58b3ee614a3b5882449071b17efcb6a0ad8eb864736f6c634300081e0033",
  "linkReferences": {},
  "deployedLinkReferences": {},
  "immutableReferences": {
    "3426": [
      {
        "length": 32,
        "start": 1872
      }
    ],
    "3428": [
      {
        "length": 32,
        "start": 1830
      }
    ],
    "3430": [
      {
        "length": 32,
        "start": 1788
      }
    ],
    "3432": [
      {
        "length": 32,
        "start": 1953
      }
    ],
    "3434": [
      {
        "length": 32,
        "start": 1993
      }
    ],
    "3437": [
      {
        "length": 32,
        "start": 2310
      }
    ],
    "3440": [
      {
        "length": 32,
        "start": 2355
      }
    ]
  },
  "inputSourceName": "project/contracts/IDRStable.sol",
  "buildInfoId": "solc-0_8_30-d859f8050d5eda2890f5a1a53fb1a39a7ae9ed19"
}