{
  "_format": "hh3-artifact-1",
  "contractName": "IDRToken",
  "sourceName": "contracts/IDRStable.sol",
  "abi": [
    {
      "inputs": [
        {
          "internalType": "address",
          "name": "initialOwner",
          "type": "address"
        }
      ],
      "stateMutability": "nonpayable",
      "type": "constructor"
    },
    {
      "inputs": [],
      "name": "ECDSAInvalidSignature",
      "type": "error"
    },
    {
      "inputs": [
        {
          "internalType": "uint256",
          "name": "length",
          "type": "uint256"
        }
      ],
      "name": "ECDSAInvalidSignatureLength",
      "type": "error"
    },
    {
      "inputs": [
        {
          "internalType": "bytes32",
          "name": "s",
          "type": "bytes32"
        }
      ],
      "name": "ECDSAInvalidSignatureS",
      "type": "error"
    },
    {
      "inputs": [
        {
          "internalType": "address",
          "name": "spender",
          "type": "address"
        },
        {
          "internalType": "uint256",
          "name": "allowance",
          "type": "uint256"
        },
        {
          "internalType": "uint256",
          "name": "needed",
          "type": "uint256"
        }
      ],
      "name": "ERC20InsufficientAllowance",
      "type": "error"
    },
    {
      "inputs": [
        {
          "internalType": "address",
          "name": "sender",
          "type": "address"
        },
        {
          "internalType": "uint256",
          "name": "balance",
          "type": "uint256"
        },
        {
          "internalType": "uint256",
          "name": "needed",
          "type": "uint256"
        }
      ],
      "name": "ERC20InsufficientBalance",
      "type": "error"
    },
    {
      "inputs": [
        {
          "internalType": "address",
          "name": "approver",
          "type": "address"
        }
      ],
      "name": "ERC20InvalidApprover",
      "type": "error"
    },
    {
      "inputs": [
        {
          "internalType": "address",
          "name": "receiver",
          "type": "address"
        }
      ],
      "name": "ERC20InvalidReceiver",
      "type": "error"
    },
    {
      "inputs": [
        {
          "internalType": "address",
          "name": "sender",
          "type": "address"
        }
      ],
      "name": "ERC20InvalidSender",
      "type": "error"
    },
    {
      "inputs": [
        {
          "internalType": "address",
          "name": "spender",
          "type": "address"
        }
      ],
      "name": "ERC20InvalidSpender",
      "type": "error"
    },
    {
      "inputs": [
        {
          "internalType": "uint256",
          "name": "deadline",
          "type": "uint256"
        }
      ],
      "name": "ERC2612ExpiredSignature",
      "type": "error"
    },
    {
      "inputs": [
        {
          "internalType": "address",
          "name": "signer",
          "type": "address"
        },
        {
          "internalType": "address",
          "name": "owner",
          "type": "address"
        }
      ],
      "name": "ERC2612InvalidSigner",
      "type": "error"
    },
    {
      "inputs": [
        {
          "internalType": "address",
          "name": "account",
          "type": "address"
        },
        {
          "internalType": "uint256",
          "name": "currentNonce",
          "type": "uint256"
        }
      ],
      "name": "InvalidAccountNonce",
      "type": "error"
    },
    {
      "inputs": [],
      "name": "InvalidShortString",
      "type": "error"
    },
    {
      "inputs": [
        {
          "internalType": "address",
          "name": "owner",
          "type": "address"
        }
      ],
      "name": "OwnableInvalidOwner",
      "type": "error"
    },
    {
      "inputs": [
        {
          "internalType": "address",
          "name": "account",
          "type": "address"
        }
      ],
      "name": "OwnableUnauthorizedAccount",
      "type": "error"
    },
    {
      "inputs": [
        {
          "internalType": "string",
          "name": "str",
          "type": "string"
        }
      ],
      "name": "StringTooLong",
      "type": "error"
    },
    {
      "anonymous": false,
      "inputs": [
        {
          "indexed": true,
          "internalType": "address",
          "name": "owner",
          "type": "address"
        },
        {
          "indexed": true,
          "internalType": "address",
          "name": "spender",
          "type": "address"
        },
        {
          "indexed": false,
          "internalType": "uint256",
          "name": "value",
          "type": "uint256"
        }
      ],
      "name": "Approval",
      "type": "event"
    },
    {
      "anonymous": false,
      "inputs": [],
      "name": "EIP712DomainChanged",
      "type": "event"
    },
    {
      "anonymous": false,
      "inputs": [
        {
          "indexed": true,
          "internalType": "address",
          "name": "previousOwner",
          "type": "address"
        },
        {
          "indexed": true,
          "internalType": "address",
          "name": "newOwner",
          "type": "address"
        }
      ],
      "name": "OwnershipTransferred",
      "type": "event"
    },
    {
      "anonymous": false,
      "inputs": [
        {
          "indexed": true,
          "internalType": "address",
          "name": "from",
          "type": "address"
        },
        {
          "indexed": true,
          "internalType": "address",
          "name": "to",
          "type": "address"
        },
        {
          "indexed": false,
          "internalType": "uint256",
          "name": "value",
          "type": "uint256"
        }
      ],
      "name": "Transfer",
      "type": "event"
    },
    {
      "inputs": [],
      "name": "DOMAIN_SEPARATOR",
      "outputs": [
        {
          "internalType": "bytes32",
          "name": "",
          "type": "bytes32"
        }
      ],
      "stateMutability": "view",
      "type": "function"
    },
    {
      "inputs": [],
      "name": "EXCHANGE_RATE",
      "outputs": [
        {
          "internalType": "uint256",
          "name": "",
          "type": "uint256"
        }
      ],
      "stateMutability": "view",
      "type": "function"
    },
    {
      "inputs": [
        {
          "internalType": "address",
          "name": "owner",
          "type": "address"
        },
        {
          "internalType": "address",
          "name": "spender",
          "type": "address"
        }
      ],
      "name": "allowance",
      "outputs": [
        {
          "internalType": "uint256",
          "name": "",
          "type": "uint256"
        }
      ],
      "stateMutability": "view",
      "type": "function"
    },
    {
      "inputs": [
        {
          "internalType": "address",
          "name": "spender",
          "type": "address"
        },
        {
          "internalType": "uint256",
          "name": "value",
          "type": "uint256"
        }
      ],
      "name": "approve",
      "outputs": [
        {
          "internalType": "bool",
          "name": "",
          "type": "bool"
        }
      ],
      "stateMutability": "nonpayable",
      "type": "function"
    },
    {
      "inputs": [
        {
          "internalType": "address",
          "name": "account",
          "type": "address"
        }
      ],
      "name": "balanceOf",
      "outputs": [
        {
          "internalType": "uint256",
          "name": "",
          "type": "uint256"
        }
      ],
      "stateMutability": "view",
      "type": "function"
    },
    {
      "inputs": [
        {
          "internalType": "uint256",
          "name": "value",
          "type": "uint256"
        }
      ],
      "name": "burn",
      "outputs": [],
      "stateMutability": "nonpayable",
      "type": "function"
    },
    {
      "inputs": [
        {
          "internalType": "address",
          "name": "from",
          "type": "address"
        },
        {
          "internalType": "uint256",
          "name": "amount",
          "type": "uint256"
        }
      ],
      "name": "burn",
      "outputs": [],
      "stateMutability": "nonpayable",
      "type": "function"
    },
    {
      "inputs": [
        {
          "internalType": "address",
          "name": "account",
          "type": "address"
        },
        {
          "internalType": "uint256",
          "name": "value",
          "type": "uint256"
        }
      ],
      "name": "burnFrom",
      "outputs": [],
      "stateMutability": "nonpayable",
      "type": "function"
    },
    {
      "inputs": [],
      "name": "decimals",
      "outputs": [
        {
          "internalType": "uint8",
          "name": "",
          "type": "uint8"
        }
      ],
      "stateMutability": "view",
      "type": "function"
    },
    {
      "inputs": [],
      "name": "deposit",
      "outputs": [],
      "stateMutability": "payable",
      "type": "function"
    },
    {
      "inputs": [],
      "name": "eip712Domain",
      "outputs": [
        {
          "internalType": "bytes1",
          "name": "fields",
          "type": "bytes1"
        },
        {
          "internalType": "string",
          "name": "name",
          "type": "string"
        },
        {
          "internalType": "string",
          "name": "version",
          "type": "string"
        },
        {
          "internalType": "uint256",
          "name": "chainId",
          "type": "uint256"
        },
        {
          "internalType": "address",
          "name": "verifyingContract",
          "type": "address"
        },
        {
          "internalType": "bytes32",
          "name": "salt",
          "type": "bytes32"
        },
        {
          "internalType": "uint256[]",
          "name": "extensions",
          "type": "uint256[]"
        }
      ],
      "stateMutability": "view",
      "type": "function"
    },
    {
      "inputs": [
        {
          "internalType": "address",
          "name": "to",
          "type": "address"
        },
        {
          "internalType": "uint256",
          "name": "amount",
          "type": "uint256"
        }
      ],
      "name": "mint",
      "outputs": [],
      "stateMutability": "nonpayable",
      "type": "function"
    },
    {
      "inputs": [],
      "name": "name",
      "outputs": [
        {
          "internalType": "string",
          "name": "",
          "type": "string"
        }
      ],
      "stateMutability": "view",
      "type": "function"
    },
    {
      "inputs": [
        {
          "internalType": "address",
          "name": "owner",
          "type": "address"
        }
      ],
      "name": "nonces",
      "outputs": [
        {
          "internalType": "uint256",
          "name": "",
          "type": "uint256"
        }
      ],
      "stateMutability": "view",
      "type": "function"
    },
    {
      "inputs": [],
      "name": "owner",
      "outputs": [
        {
          "internalType": "address",
          "name": "",
          "type": "address"
        }
      ],
      "stateMutability": "view",
      "type": "function"
    },
    {
      "inputs": [
        {
          "internalType": "address",
          "name": "owner",
          "type": "address"
        },
        {
          "internalType": "address",
          "name": "spender",
          "type": "address"
        },
        {
          "internalType": "uint256",
          "name": "value",
          "type": "uint256"
        },
        {
          "internalType": "uint256",
          "name": "deadline",
          "type": "uint256"
        },
        {
          "internalType": "uint8",
          "name": "v",
          "type": "uint8"
        },
        {
          "internalType": "bytes32",
          "name": "r",
          "type": "bytes32"
        },
        {
          "internalType": "bytes32",
          "name": "s",
          "type": "bytes32"
        }
      ],
      "name": "permit",
      "outputs": [],
      "stateMutability": "nonpayable",
      "type": "function"
    },
    {
      "inputs": [],
      "name": "renounceOwnership",
      "outputs": [],
      "stateMutability": "nonpayable",
      "type": "function"
    },
    {
      "inputs": [],
      "name": "symbol",
      "outputs": [
        {
          "internalType": "string",
          "name": "",
          "type": "string"
        }
      ],
      "stateMutability": "view",
      "type": "function"
    },
    {
      "inputs": [],
      "name": "totalSupply",
      "outputs": [
        {
          "internalType": "uint256",
          "name": "",
          "type": "uint256"
        }
      ],
      "stateMutability": "view",
      "type": "function"
    },
    {
      "inputs": [
        {
          "internalType": "address",
          "name": "to",
          "type": "address"
        },
        {
          "internalType": "uint256",
          "name": "value",
          "type": "uint256"
        }
      ],
      "name": "transfer",
      "outputs": [
        {
          "internalType": "bool",
          "name": "",
          "type": "bool"
        }
      ],
      "stateMutability": "nonpayable",
      "type": "function"
    },
    {
      "inputs": [
        {
          "internalType": "address",
          "name": "from",
          "type": "address"
        },
        {
          "internalType": "address",
          "name": "to",
          "type": "address"
        },
        {
          "internalType": "uint256",
          "name": "value",
          "type": "uint256"
        }
      ],
      "name": "transferFrom",
      "outputs": [
        {
          "internalType": "bool",
          "name": "",
          "type": "bool"
        }
      ],
      "stateMutability": "nonpayable",
      "type": "function"
    },
    {
      "inputs": [
        {
          "internalType": "address",
          "name": "newOwner",
          "type": "address"
        }
      ],
      "name": "transferOwnership",
      "outputs": [],
      "stateMutability": "nonpayable",
      "type": "function"
    }
  ],
  "bytecode": "0x610160604052348015610010575f5ffd5b5060405161173038038061173083398101604081905261002f91610277565b6040518060400160405280600881526020016724a2292a37b5b2b760c11b81525080604051806040016040528060018152602001603160f81b815250836040518060400160405280600881526020016724a2292a37b5b2b760c11b8152506040518060400160405280600381526020016224a22960e91b81525081600390816100b8919061033c565b5060046100c5828261033c565b5050506001600160a01b0381166100f657604051631e4fbdf760e01b81525f60048201526024015b60405180910390fd5b6100ff816101b7565b5061010b826006610208565b6101205261011a816007610208565b61014052815160208084019190912060e052815190820120610100524660a0526101a660e05161010051604080517f8b73c3c69bb8fe3d512ecc4cf759cc79239f7b179b0ffacaa9a75d522b39400f60208201529081019290925260608201524660808201523060a08201525f9060c00160405160208183030381529060405280519060200120905090565b60805250503060c0525061044e9050565b600580546001600160a01b038381166001600160a01b0319831681179093556040519116919082907f8be0079c531659141344cd1fd0a4f28419497f9722a3daafe3b4186f6b6457e0905f90a35050565b5f6020835110156102235761021c8361023a565b9050610234565b8161022e848261033c565b5060ff90505b92915050565b5f5f829050601f81511115610264578260405163305a27a960e01b81526004016100ed91906103f6565b805161026f8261042b565b179392505050565b5f60208284031215610287575f5ffd5b81516001600160a01b038116811461029d575f5ffd5b9392505050565b634e487b7160e01b5f52604160045260245ffd5b600181811c908216806102cc57607f821691505b6020821081036102ea57634e487b7160e01b5f52602260045260245ffd5b50919050565b601f82111561033757805f5260205f20601f840160051c810160208510156103155750805b601f840160051c820191505b81811015610334575f8155600101610321565b50505b505050565b81516001600160401b03811115610355576103556102a4565b6103698161036384546102b8565b846102f0565b6020601f82116001811461039b575f83156103845750848201515b5f19600385901b1c1916600184901b178455610334565b5f84815260208120601f198516915b828110156103ca57878501518255602094850194600190920191016103aa565b50848210156103e757868401515f19600387901b60f8161c191681555b50505050600190811b01905550565b602081525f82518060208401528060208501604085015e5f604082850101526040601f19601f83011684010191505092915050565b805160208083015191908110156102ea575f1960209190910360031b1b16919050565b60805160a05160c05160e05161010051610120516101405161129161049f5f395f610aa601525f610a7901525f61093c01525f61091401525f61086f01525f61089901525f6108c301526112915ff3fe608060405260043610610131575f3560e01c806379cc6790116100a85780639dc29fac1161006d5780639dc29fac1461033b578063a9059cbb1461035a578063d0e30db014610379578063d505accf14610381578063dd62ed3e146103a0578063f2fde38b146103e4575f5ffd5b806379cc67901461029b5780637ecebe00146102ba57806384b0196e146102d95780638da5cb5b1461030057806395d89b4114610327575f5ffd5b8063313ce567116100f9578063313ce567146101e45780633644e515146101ff57806340c10f191461021357806342966c681461023457806370a0823114610253578063715018a614610287575f5ffd5b806306fdde0314610135578063095ea7b31461015f57806314a8bd0d1461018e57806318160ddd146101b157806323b872dd146101c5575b5f5ffd5b348015610140575f5ffd5b50610149610403565b6040516101569190610fd7565b60405180910390f35b34801561016a575f5ffd5b5061017e61017936600461100b565b610493565b6040519015158152602001610156565b348015610199575f5ffd5b506101a36103e881565b604051908152602001610156565b3480156101bc575f5ffd5b506002546101a3565b3480156101d0575f5ffd5b5061017e6101df366004611033565b6104ac565b3480156101ef575f5ffd5b5060405160128152602001610156565b34801561020a575f5ffd5b506101a36104cf565b34801561021e575f5ffd5b5061023261022d36600461100b565b6104dd565b005b34801561023f575f5ffd5b5061023261024e36600461106d565b6104f3565b34801561025e575f5ffd5b506101a361026d366004611084565b6001600160a01b03165f9081526020819052604090205490565b348015610292575f5ffd5b50610232610500565b3480156102a6575f5ffd5b506102326102b536600461100b565b610513565b3480156102c5575f5ffd5b506101a36102d4366004611084565b610528565b3480156102e4575f5ffd5b506102ed610545565b604051610156979695949392919061109d565b34801561030b575f5ffd5b506005546040516001600160a01b039091168152602001610156565b348015610332575f5ffd5b50610149610587565b348015610346575f5ffd5b5061023261035536600461100b565b610596565b348015610365575f5ffd5b5061017e61037436600461100b565b61059e565b6102326105ab565b34801561038c575f5ffd5b5061023261039b366004611133565b610608565b3480156103ab575f5ffd5b506101a36103ba3660046111a0565b6001600160a01b039182165f90815260016020908152604080832093909416825291909152205490565b3480156103ef575f5ffd5b506102326103fe366004611084565b61073e565b606060038054610412906111d1565b80601f016020809104026020016040519081016040528092919081815260200182805461043e906111d1565b80156104895780601f1061046057610100808354040283529160200191610489565b820191905f5260205f20905b81548152906001019060200180831161046c57829003601f168201915b5050505050905090565b5f336104a0818585610778565b60019150505b92915050565b5f336104b985828561078a565b6104c4858585610806565b506001949350505050565b5f6104d8610863565b905090565b6104e561098c565b6104ef82826109b9565b5050565b6104fd33826109ed565b50565b61050861098c565b6105115f610a21565b565b61051e82338361078a565b6104ef82826109ed565b6001600160a01b0381165f908152600860205260408120546104a6565b5f6060805f5f5f6060610556610a72565b61055e610a9f565b604080515f80825260208201909252600f60f81b9b939a50919850469750309650945092509050565b606060048054610412906111d1565b61051e61098c565b5f336104a0818585610806565b5f34116105ef5760405162461bcd60e51b815260206004820152600d60248201526c09aeae6e840e6cadcc8408aa89609b1b60448201526064015b60405180910390fd5b5f6105fc6103e83461121d565b90506104fd33826109b9565b8342111561062c5760405163313c898160e11b8152600481018590526024016105e6565b5f7f6e71edae12b1b97f4d1f60370fef10105fa2faae0126114a169c64845d6126c98888886106778c6001600160a01b03165f90815260086020526040902080546001810190915590565b6040805160208101969096526001600160a01b0394851690860152929091166060840152608083015260a082015260c0810186905260e0016040516020818303038152906040528051906020012090505f6106d182610acc565b90505f6106e082878787610af8565b9050896001600160a01b0316816001600160a01b031614610727576040516325c0072360e11b81526001600160a01b0380831660048301528b1660248201526044016105e6565b6107328a8a8a610778565b50505050505050505050565b61074661098c565b6001600160a01b03811661076f57604051631e4fbdf760e01b81525f60048201526024016105e6565b6104fd81610a21565b6107858383836001610b24565b505050565b6001600160a01b038381165f908152600160209081526040808320938616835292905220545f1981101561080057818110156107f257604051637dc7a0d960e11b81526001600160a01b038416600482015260248101829052604481018390526064016105e6565b61080084848484035f610b24565b50505050565b6001600160a01b03831661082f57604051634b637e8f60e11b81525f60048201526024016105e6565b6001600160a01b0382166108585760405163ec442f0560e01b81525f60048201526024016105e6565b610785838383610bf6565b5f306001600160a01b037f0000000000000000000000000000000000000000000000000000000000000000161480156108bb57507f000000000000000000000000000000000000000000000000000000000000000046145b156108e557507f000000000000000000000000000000000000000000000000000000000000000090565b6104d8604080517f8b73c3c69bb8fe3d512ecc4cf759cc79239f7b179b0ffacaa9a75d522b39400f60208201527f0000000000000000000000000000000000000000000000000000000000000000918101919091527f000000000000000000000000000000000000000000000000000000000000000060608201524660808201523060a08201525f9060c00160405160208183030381529060405280519060200120905090565b6005546001600160a01b031633146105115760405163118cdaa760e01b81523360048201526024016105e6565b6001600160a01b0382166109e25760405163ec442f0560e01b81525f60048201526024016105e6565b6104ef5f8383610bf6565b6001600160a01b038216610a1657604051634b637e8f60e11b81525f60048201526024016105e6565b6104ef825f83610bf6565b600580546001600160a01b038381166001600160a01b0319831681179093556040519116919082907f8be0079c531659141344cd1fd0a4f28419497f9722a3daafe3b4186f6b6457e0905f90a35050565b60606104d87f00000000000000000000000000000000000000000000000000000000000000006006610d1c565b60606104d87f00000000000000000000000000000000000000000000000000000000000000006007610d1c565b5f6104a6610ad8610863565b8360405161190160f01b8152600281019290925260228201526042902090565b5f5f5f5f610b0888888888610dc5565b925092509250610b188282610e8d565b50909695505050505050565b6001600160a01b038416610b4d5760405163e602df0560e01b81525f60048201526024016105e6565b6001600160a01b038316610b7657604051634a1406b160e11b81525f60048201526024016105e6565b6001600160a01b038085165f908152600160209081526040808320938716835292905220829055801561080057826001600160a01b0316846001600160a01b03167f8c5be1e5ebec7d5bd14f71427d1e84f3dd0314c0f7b2291e5b200ac8c7c3b92584604051610be891815260200190565b60405180910390a350505050565b6001600160a01b038316610c20578060025f828254610c159190611234565b90915550610c909050565b6001600160a01b0383165f9081526020819052604090205481811015610c725760405163391434e360e21b81526001600160a01b038516600482015260248101829052604481018390526064016105e6565b6001600160a01b0384165f9081526020819052604090209082900390555b6001600160a01b038216610cac57600280548290039055610cca565b6001600160a01b0382165f9081526020819052604090208054820190555b816001600160a01b0316836001600160a01b03167fddf252ad1be2c89b69c2b068fc378daa952ba7f163c4a11628f55a4df523b3ef83604051610d0f91815260200190565b60405180910390a3505050565b606060ff8314610d3657610d2f83610f45565b90506104a6565b818054610d42906111d1565b80601f0160208091040260200160405190810160405280929190818152602001828054610d6e906111d1565b8015610db95780601f10610d9057610100808354040283529160200191610db9565b820191905f5260205f20905b815481529060010190602001808311610d9c57829003601f168201915b505050505090506104a6565b5f80807f7fffffffffffffffffffffffffffffff5d576e7357a4501ddfe92f46681b20a0841115610dfe57505f91506003905082610e83565b604080515f808252602082018084528a905260ff891692820192909252606081018790526080810186905260019060a0016020604051602081039080840390855afa158015610e4f573d5f5f3e3d5ffd5b5050604051601f1901519150506001600160a01b038116610e7a57505f925060019150829050610e83565b92505f91508190505b9450945094915050565b5f826003811115610ea057610ea0611247565b03610ea9575050565b6001826003811115610ebd57610ebd611247565b03610edb5760405163f645eedf60e01b815260040160405180910390fd5b6002826003811115610eef57610eef611247565b03610f105760405163fce698f760e01b8152600481018290526024016105e6565b6003826003811115610f2457610f24611247565b036104ef576040516335e2f38360e21b8152600481018290526024016105e6565b60605f610f5183610f82565b6040805160208082528183019092529192505f91906020820181803683375050509182525060208101929092525090565b5f60ff8216601f8111156104a657604051632cd44ac360e21b815260040160405180910390fd5b5f81518084528060208401602086015e5f602082860101526020601f19601f83011685010191505092915050565b602081525f610fe96020830184610fa9565b9392505050565b80356001600160a01b0381168114611006575f5ffd5b919050565b5f5f6040838503121561101c575f5ffd5b61102583610ff0565b946020939093013593505050565b5f5f5f60608486031215611045575f5ffd5b61104e84610ff0565b925061105c60208501610ff0565b929592945050506040919091013590565b5f6020828403121561107d575f5ffd5b5035919050565b5f60208284031215611094575f5ffd5b610fe982610ff0565b60ff60f81b8816815260e060208201525f6110bb60e0830189610fa9565b82810360408401526110cd8189610fa9565b606084018890526001600160a01b038716608085015260a0840186905283810360c0850152845180825260208087019350909101905f5b81811015611122578351835260209384019390920191600101611104565b50909b9a5050505050505050505050565b5f5f5f5f5f5f5f60e0888a031215611149575f5ffd5b61115288610ff0565b965061116060208901610ff0565b95506040880135945060608801359350608088013560ff81168114611183575f5ffd5b9699959850939692959460a0840135945060c09093013592915050565b5f5f604083850312156111b1575f5ffd5b6111ba83610ff0565b91506111c860208401610ff0565b90509250929050565b600181811c908216806111e557607f821691505b60208210810361120357634e487b7160e01b5f52602260045260245ffd5b50919050565b634e487b7160e01b5f52601160045260245ffd5b80820281158282048414176104a6576104a6611209565b808201808211156104a6576104a6611209565b634e487b7160e01b5f52602160045260245ffdfea2646970667358221220f03c3b26614086d1e7ffc1d08a337c8eb42b022f38f1f962009e39ed07fc349c64736f6c634300081e0033",
  "linkReferences": {},
  "deployedLinkReferences": {},
  "immutableReferences": {
    "3426": [
      {
        "length": 32,
        "start": 2243
      }
    ],
    "3428": [
      {
        "length": 32,
        "start": 2201
      }
    ],
    "3430": [
      {
        "length": 32,
        "start": 2159
      }
    ],
    "3432": [
      {
        "length": 32,
        "start": 2324
      }
    ],
    "3434": [
      {
        "length": 32,
        "start": 2364
      }
    ],
    "3437": [
      {
        "length": 32,
        "start": 2681
      }
    ],
    "3440": [
      {
        "length": 32,
        "start": 2726
      }
    ]
  },
  "inputSourceName": "project/contracts/IDRStable.sol",
  "buildInfoId": "solc-0_8_30-153eff5870de9df9a6135360df9df94b3499a8f9"
}