{
  "_format": "hh3-artifact-1",
  "contractName": "PaymentProcessor",
  "sourceName": "contracts/PaymentProcessor.sol",
  "abi": [
    {
      "inputs": [
        {
          "internalType": "address",
          "name": "_stableToken",
          "type": "address"
        },
        {
          "internalType": "address",
          "name": "_receiptContract",
          "type": "address"
        },
        {
          "internalType": "address",
          "name": "_platformWallet",
          "type": "address"
        },
        {
          "internalType": "uint256",
          "name": "_platformFeeBps",
          "type": "uint256"
        }
      ],
      "stateMutability": "nonpayable",
      "type": "constructor"
    },
    {
      "inputs": [
        {
          "internalType": "address",
          "name": "owner",
          "type": "address"
        }
      ],
      "name": "OwnableInvalidOwner",
      "type": "error"
    },
    {
      "inputs": [
        {
          "internalType": "address",
          "name": "account",
          "type": "address"
        }
      ],
      "name": "OwnableUnauthorizedAccount",
      "type": "error"
    },
    {
      "anonymous": false,
      "inputs": [
        {
          "indexed": true,
          "internalType": "address",
          "name": "previousOwner",
          "type": "address"
        },
        {
          "indexed": true,
          "internalType": "address",
          "name": "newOwner",
          "type": "address"
        }
      ],
      "name": "OwnershipTransferred",
      "type": "event"
    },
    {
      "anonymous": false,
      "inputs": [
        {
          "indexed": true,
          "internalType": "address",
          "name": "buyer",
          "type": "address"
        },
        {
          "indexed": true,
          "internalType": "address",
          "name": "merchant",
          "type": "address"
        },
        {
          "indexed": false,
          "internalType": "uint256",
          "name": "amount",
          "type": "uint256"
        },
        {
          "indexed": false,
          "internalType": "uint256",
          "name": "platformFee",
          "type": "uint256"
        },
        {
          "indexed": false,
          "internalType": "uint256",
          "name": "tokenId",
          "type": "uint256"
        },
        {
          "indexed": false,
          "internalType": "string",
          "name": "category",
          "type": "string"
        },
        {
          "indexed": false,
          "internalType": "uint256",
          "name": "timestamp",
          "type": "uint256"
        }
      ],
      "name": "PaymentMade",
      "type": "event"
    },
    {
      "inputs": [],
      "name": "owner",
      "outputs": [
        {
          "internalType": "address",
          "name": "",
          "type": "address"
        }
      ],
      "stateMutability": "view",
      "type": "function"
    },
    {
      "inputs": [
        {
          "internalType": "address",
          "name": "merchant",
          "type": "address"
        },
        {
          "internalType": "uint256",
          "name": "amount",
          "type": "uint256"
        },
        {
          "internalType": "string",
          "name": "receiptTokenURI",
          "type": "string"
        },
        {
          "internalType": "string",
          "name": "category",
          "type": "string"
        }
      ],
      "name": "payMerchant",
      "outputs": [],
      "stateMutability": "nonpayable",
      "type": "function"
    },
    {
      "inputs": [],
      "name": "platformFeeBps",
      "outputs": [
        {
          "internalType": "uint256",
          "name": "",
          "type": "uint256"
        }
      ],
      "stateMutability": "view",
      "type": "function"
    },
    {
      "inputs": [],
      "name": "platformWallet",
      "outputs": [
        {
          "internalType": "address",
          "name": "",
          "type": "address"
        }
      ],
      "stateMutability": "view",
      "type": "function"
    },
    {
      "inputs": [],
      "name": "receiptContract",
      "outputs": [
        {
          "internalType": "contract IReceiptNFT",
          "name": "",
          "type": "address"
        }
      ],
      "stateMutability": "view",
      "type": "function"
    },
    {
      "inputs": [],
      "name": "renounceOwnership",
      "outputs": [],
      "stateMutability": "nonpayable",
      "type": "function"
    },
    {
      "inputs": [
        {
          "internalType": "uint256",
          "name": "_bps",
          "type": "uint256"
        }
      ],
      "name": "setPlatformFeeBps",
      "outputs": [],
      "stateMutability": "nonpayable",
      "type": "function"
    },
    {
      "inputs": [
        {
          "internalType": "address",
          "name": "_wallet",
          "type": "address"
        }
      ],
      "name": "setPlatformWallet",
      "outputs": [],
      "stateMutability": "nonpayable",
      "type": "function"
    },
    {
      "inputs": [],
      "name": "stableToken",
      "outputs": [
        {
          "internalType": "contract IERC20",
          "name": "",
          "type": "address"
        }
      ],
      "stateMutability": "view",
      "type": "function"
    },
    {
      "inputs": [
        {
          "internalType": "address",
          "name": "newOwner",
          "type": "address"
        }
      ],
      "name": "transferOwnership",
      "outputs": [],
      "stateMutability": "nonpayable",
      "type": "function"
    }
  ],
  "bytecode": "0x608060405234801561000f575f5ffd5b506040516109b43803806109b483398101604081905261002e9161010c565b338061005357604051631e4fbdf760e01b81525f600482015260240160405180910390fd5b61005c816100a2565b50600180546001600160a01b03199081166001600160a01b0396871617909155600280548216948616949094179093556003805490931691909316179055600455610154565b5f80546001600160a01b038381166001600160a01b0319831681178455604051919092169283917f8be0079c531659141344cd1fd0a4f28419497f9722a3daafe3b4186f6b6457e09190a35050565b80516001600160a01b0381168114610107575f5ffd5b919050565b5f5f5f5f6080858703121561011f575f5ffd5b610128856100f1565b9350610136602086016100f1565b9250610144604086016100f1565b6060959095015193969295505050565b610853806101615f395ff3fe608060405234801561000f575f5ffd5b506004361061009b575f3560e01c8063a9d75b2b11610063578063a9d75b2b1461010f578063c580c94214610122578063d435b3a314610135578063f2fde38b14610148578063fa2af9da1461015b575f5ffd5b806322dcd13e1461009f578063431cade2146100bb578063715018a6146100d05780638831e9cf146100d85780638da5cb5b146100eb575b5f5ffd5b6100a860045481565b6040519081526020015b60405180910390f35b6100ce6100c9366004610637565b61016e565b005b6100ce610494565b6100ce6100e63660046106c0565b6104a7565b5f546001600160a01b03165b6040516001600160a01b0390911681526020016100b2565b6001546100f7906001600160a01b031681565b6100ce6101303660046106e0565b6104d1565b6002546100f7906001600160a01b031681565b6100ce6101563660046106c0565b61051f565b6003546100f7906001600160a01b031681565b6001600160a01b0386166101bc5760405162461bcd60e51b815260206004820152601060248201526f1a5b9d985b1a59081b595c98da185b9d60821b60448201526064015b60405180910390fd5b5f85116101f95760405162461bcd60e51b815260206004820152600b60248201526a616d6f756e74207a65726f60a81b60448201526064016101b3565b5f6127106004548761020b919061070b565b6102159190610728565b90505f6102228288610747565b6001546040516323b872dd60e01b81523360048201526001600160a01b038b81166024830152604482018490529293505f92909116906323b872dd906064016020604051808303815f875af115801561027d573d5f5f3e3d5ffd5b505050506040513d601f19601f820116820180604052508101906102a1919061075a565b9050806102f05760405162461bcd60e51b815260206004820152601b60248201527f7472616e7366657220746f206d65726368616e74206661696c6564000000000060448201526064016101b3565b82156103bd576001546003546040516323b872dd60e01b81523360048201526001600160a01b039182166024820152604481018690525f9291909116906323b872dd906064016020604051808303815f875af1158015610352573d5f5f3e3d5ffd5b505050506040513d601f19601f82011682018060405250810190610376919061075a565b9050806103bb5760405162461bcd60e51b81526020600482015260136024820152721d1c985b9cd9995c881999594819985a5b1959606a1b60448201526064016101b3565b505b60025460405163480992af60e11b81525f916001600160a01b031690639013255e906103f19033908c908c906004016107a1565b6020604051808303815f875af115801561040d573d5f5f3e3d5ffd5b505050506040513d601f19601f8201168201806040525081019061043191906107ce565b9050896001600160a01b0316336001600160a01b03167faf6304adde17ee75701970aebd82de086c3486e965ed031657adc30b56aa8e8f8b87858b8b42604051610480969594939291906107e5565b60405180910390a350505050505050505050565b61049c61055c565b6104a55f610588565b565b6104af61055c565b600380546001600160a01b0319166001600160a01b0392909216919091179055565b6104d961055c565b6103e881111561051a5760405162461bcd60e51b815260206004820152600c60248201526b0cccaca40e8dede40d0d2ced60a31b60448201526064016101b3565b600455565b61052761055c565b6001600160a01b03811661055057604051631e4fbdf760e01b81525f60048201526024016101b3565b61055981610588565b50565b5f546001600160a01b031633146104a55760405163118cdaa760e01b81523360048201526024016101b3565b5f80546001600160a01b038381166001600160a01b0319831681178455604051919092169283917f8be0079c531659141344cd1fd0a4f28419497f9722a3daafe3b4186f6b6457e09190a35050565b80356001600160a01b03811681146105ed575f5ffd5b919050565b5f5f83601f840112610602575f5ffd5b50813567ffffffffffffffff811115610619575f5ffd5b602083019150836020828501011115610630575f5ffd5b9250929050565b5f5f5f5f5f5f6080878903121561064c575f5ffd5b610655876105d7565b955060208701359450604087013567ffffffffffffffff811115610677575f5ffd5b61068389828a016105f2565b909550935050606087013567ffffffffffffffff8111156106a2575f5ffd5b6106ae89828a016105f2565b979a9699509497509295939492505050565b5f602082840312156106d0575f5ffd5b6106d9826105d7565b9392505050565b5f602082840312156106f0575f5ffd5b5035919050565b634e487b7160e01b5f52601160045260245ffd5b8082028115828204841417610722576107226106f7565b92915050565b5f8261074257634e487b7160e01b5f52601260045260245ffd5b500490565b81810381811115610722576107226106f7565b5f6020828403121561076a575f5ffd5b815180151581146106d9575f5ffd5b81835281816020850137505f828201602090810191909152601f909101601f19169091010190565b6001600160a01b03841681526040602082018190525f906107c59083018486610779565b95945050505050565b5f602082840312156107de575f5ffd5b5051919050565b86815285602082015284604082015260a060608201525f61080a60a083018587610779565b905082608083015297965050505050505056fea2646970667358221220bce216f084fbe74b555c8de564dd933ee98cb09e87a97f9e83e3e2e5031556fe64736f6c634300081e0033",
  "linkReferences": {},
  "deployedLinkReferences": {},
  "immutableReferences": {},
  "inputSourceName": "project/contracts/PaymentProcessor.sol",
  "buildInfoId": "solc-0_8_30-af232ccffbcfc7c584cf605618420d8f95592670"
}