{
  "_format": "hh3-artifact-1",
  "contractName": "PaymentProcessor",
  "sourceName": "contracts/PaymentProcessor.sol",
  "abi": [
    {
      "inputs": [
        {
          "internalType": "address",
          "name": "_stableToken",
          "type": "address"
        },
        {
          "internalType": "address",
          "name": "_receiptContract",
          "type": "address"
        },
        {
          "internalType": "address",
          "name": "_platformWallet",
          "type": "address"
        },
        {
          "internalType": "uint256",
          "name": "_platformFeeBps",
          "type": "uint256"
        }
      ],
      "stateMutability": "nonpayable",
      "type": "constructor"
    },
    {
      "inputs": [
        {
          "internalType": "address",
          "name": "owner",
          "type": "address"
        }
      ],
      "name": "OwnableInvalidOwner",
      "type": "error"
    },
    {
      "inputs": [
        {
          "internalType": "address",
          "name": "account",
          "type": "address"
        }
      ],
      "name": "OwnableUnauthorizedAccount",
      "type": "error"
    },
    {
      "anonymous": false,
      "inputs": [
        {
          "indexed": true,
          "internalType": "address",
          "name": "previousOwner",
          "type": "address"
        },
        {
          "indexed": true,
          "internalType": "address",
          "name": "newOwner",
          "type": "address"
        }
      ],
      "name": "OwnershipTransferred",
      "type": "event"
    },
    {
      "anonymous": false,
      "inputs": [
        {
          "indexed": true,
          "internalType": "address",
          "name": "buyer",
          "type": "address"
        },
        {
          "indexed": true,
          "internalType": "address",
          "name": "merchant",
          "type": "address"
        },
        {
          "indexed": false,
          "internalType": "uint256",
          "name": "amount",
          "type": "uint256"
        },
        {
          "indexed": false,
          "internalType": "uint256",
          "name": "platformFee",
          "type": "uint256"
        },
        {
          "indexed": false,
          "internalType": "uint256",
          "name": "tokenId",
          "type": "uint256"
        },
        {
          "indexed": false,
          "internalType": "uint256",
          "name": "timestamp",
          "type": "uint256"
        }
      ],
      "name": "PaymentMade",
      "type": "event"
    },
    {
      "inputs": [],
      "name": "owner",
      "outputs": [
        {
          "internalType": "address",
          "name": "",
          "type": "address"
        }
      ],
      "stateMutability": "view",
      "type": "function"
    },
    {
      "inputs": [
        {
          "internalType": "address",
          "name": "merchant",
          "type": "address"
        },
        {
          "internalType": "uint256",
          "name": "amount",
          "type": "uint256"
        },
        {
          "internalType": "string",
          "name": "receiptTokenURI",
          "type": "string"
        }
      ],
      "name": "payMerchant",
      "outputs": [],
      "stateMutability": "nonpayable",
      "type": "function"
    },
    {
      "inputs": [],
      "name": "platformFeeBps",
      "outputs": [
        {
          "internalType": "uint256",
          "name": "",
          "type": "uint256"
        }
      ],
      "stateMutability": "view",
      "type": "function"
    },
    {
      "inputs": [],
      "name": "platformWallet",
      "outputs": [
        {
          "internalType": "address",
          "name": "",
          "type": "address"
        }
      ],
      "stateMutability": "view",
      "type": "function"
    },
    {
      "inputs": [],
      "name": "receiptContract",
      "outputs": [
        {
          "internalType": "contract IReceiptNFT",
          "name": "",
          "type": "address"
        }
      ],
      "stateMutability": "view",
      "type": "function"
    },
    {
      "inputs": [],
      "name": "renounceOwnership",
      "outputs": [],
      "stateMutability": "nonpayable",
      "type": "function"
    },
    {
      "inputs": [
        {
          "internalType": "uint256",
          "name": "_bps",
          "type": "uint256"
        }
      ],
      "name": "setPlatformFeeBps",
      "outputs": [],
      "stateMutability": "nonpayable",
      "type": "function"
    },
    {
      "inputs": [
        {
          "internalType": "address",
          "name": "_wallet",
          "type": "address"
        }
      ],
      "name": "setPlatformWallet",
      "outputs": [],
      "stateMutability": "nonpayable",
      "type": "function"
    },
    {
      "inputs": [],
      "name": "stableToken",
      "outputs": [
        {
          "internalType": "contract IERC20",
          "name": "",
          "type": "address"
        }
      ],
      "stateMutability": "view",
      "type": "function"
    },
    {
      "inputs": [
        {
          "internalType": "address",
          "name": "newOwner",
          "type": "address"
        }
      ],
      "name": "transferOwnership",
      "outputs": [],
      "stateMutability": "nonpayable",
      "type": "function"
    }
  ],
  "bytecode": "0x608060405234801561000f575f5ffd5b5060405161091938038061091983398101604081905261002e9161010c565b338061005357604051631e4fbdf760e01b81525f600482015260240160405180910390fd5b61005c816100a2565b50600180546001600160a01b03199081166001600160a01b0396871617909155600280548216948616949094179093556003805490931691909316179055600455610154565b5f80546001600160a01b038381166001600160a01b0319831681178455604051919092169283917f8be0079c531659141344cd1fd0a4f28419497f9722a3daafe3b4186f6b6457e09190a35050565b80516001600160a01b0381168114610107575f5ffd5b919050565b5f5f5f5f6080858703121561011f575f5ffd5b610128856100f1565b9350610136602086016100f1565b9250610144604086016100f1565b6060959095015193969295505050565b6107b8806101615f395ff3fe608060405234801561000f575f5ffd5b506004361061009b575f3560e01c8063a9d75b2b11610063578063a9d75b2b1461010f578063c580c94214610122578063d435b3a314610135578063f2fde38b14610148578063fa2af9da1461015b575f5ffd5b806322dcd13e1461009f578063715018a6146100bb5780638831e9cf146100c55780638da5cb5b146100d8578063a647d1d3146100fc575b5f5ffd5b6100a860045481565b6040519081526020015b60405180910390f35b6100c361016e565b005b6100c36100d33660046105f0565b610181565b5f546001600160a01b03165b6040516001600160a01b0390911681526020016100b2565b6100c361010a366004610610565b6101ab565b6001546100e4906001600160a01b031681565b6100c3610130366004610693565b6104cf565b6002546100e4906001600160a01b031681565b6100c36101563660046105f0565b61051d565b6003546100e4906001600160a01b031681565b61017661055a565b61017f5f610586565b565b61018961055a565b600380546001600160a01b0319166001600160a01b0392909216919091179055565b6001600160a01b0384166101f95760405162461bcd60e51b815260206004820152601060248201526f1a5b9d985b1a59081b595c98da185b9d60821b60448201526064015b60405180910390fd5b5f83116102365760405162461bcd60e51b815260206004820152600b60248201526a616d6f756e74207a65726f60a81b60448201526064016101f0565b5f6127106004548561024891906106be565b61025291906106db565b90505f61025f82866106fa565b6001546040516323b872dd60e01b81523360048201526001600160a01b038981166024830152604482018490529293505f92909116906323b872dd906064016020604051808303815f875af11580156102ba573d5f5f3e3d5ffd5b505050506040513d601f19601f820116820180604052508101906102de919061070d565b90508061032d5760405162461bcd60e51b815260206004820152601b60248201527f7472616e7366657220746f206d65726368616e74206661696c6564000000000060448201526064016101f0565b82156103fa576001546003546040516323b872dd60e01b81523360048201526001600160a01b039182166024820152604481018690525f9291909116906323b872dd906064016020604051808303815f875af115801561038f573d5f5f3e3d5ffd5b505050506040513d601f19601f820116820180604052508101906103b3919061070d565b9050806103f85760405162461bcd60e51b81526020600482015260136024820152721d1c985b9cd9995c881999594819985a5b1959606a1b60448201526064016101f0565b505b60025460405163480992af60e11b81525f916001600160a01b031690639013255e9061042e9033908a908a9060040161072c565b6020604051808303815f875af115801561044a573d5f5f3e3d5ffd5b505050506040513d601f19601f8201168201806040525081019061046e919061076b565b60408051898152602081018790529081018290524260608201529091506001600160a01b0389169033907f05ad76412c5a436b9e15bdc498872703f2f9e75b00fad897cd0b68e5c38d415b9060800160405180910390a35050505050505050565b6104d761055a565b6103e88111156105185760405162461bcd60e51b815260206004820152600c60248201526b0cccaca40e8dede40d0d2ced60a31b60448201526064016101f0565b600455565b61052561055a565b6001600160a01b03811661054e57604051631e4fbdf760e01b81525f60048201526024016101f0565b61055781610586565b50565b5f546001600160a01b0316331461017f5760405163118cdaa760e01b81523360048201526024016101f0565b5f80546001600160a01b038381166001600160a01b0319831681178455604051919092169283917f8be0079c531659141344cd1fd0a4f28419497f9722a3daafe3b4186f6b6457e09190a35050565b80356001600160a01b03811681146105eb575f5ffd5b919050565b5f60208284031215610600575f5ffd5b610609826105d5565b9392505050565b5f5f5f5f60608587031215610623575f5ffd5b61062c856105d5565b935060208501359250604085013567ffffffffffffffff81111561064e575f5ffd5b8501601f8101871361065e575f5ffd5b803567ffffffffffffffff811115610674575f5ffd5b876020828401011115610685575f5ffd5b949793965060200194505050565b5f602082840312156106a3575f5ffd5b5035919050565b634e487b7160e01b5f52601160045260245ffd5b80820281158282048414176106d5576106d56106aa565b92915050565b5f826106f557634e487b7160e01b5f52601260045260245ffd5b500490565b818103818111156106d5576106d56106aa565b5f6020828403121561071d575f5ffd5b81518015158114610609575f5ffd5b6001600160a01b03841681526040602082018190528101829052818360608301375f818301606090810191909152601f909201601f1916010192915050565b5f6020828403121561077b575f5ffd5b505191905056fea26469706673582212204ece74c57f50094fd3d94398c00f32fff4fb6c5cd64270ed5d612d32a1ab4a6b64736f6c634300081e0033",
  "linkReferences": {},
  "deployedLinkReferences": {},
  "immutableReferences": {},
  "inputSourceName": "project/contracts/PaymentProcessor.sol",
  "buildInfoId": "solc-0_8_30-75825fab6f60b7397e622367da9e366b2f4090d0"
}