{
  "_format": "hh3-artifact-1",
  "contractName": "ReceiptNFT",
  "sourceName": "contracts/ReceiptNFT.sol",
  "abi": [
    {
      "inputs": [
        {
          "internalType": "string",
          "name": "name_",
          "type": "string"
        },
        {
          "internalType": "string",
          "name": "symbol_",
          "type": "string"
        }
      ],
      "stateMutability": "nonpayable",
      "type": "constructor"
    },
    {
      "inputs": [
        {
          "internalType": "address",
          "name": "sender",
          "type": "address"
        },
        {
          "internalType": "uint256",
          "name": "tokenId",
          "type": "uint256"
        },
        {
          "internalType": "address",
          "name": "owner",
          "type": "address"
        }
      ],
      "name": "ERC721IncorrectOwner",
      "type": "error"
    },
    {
      "inputs": [
        {
          "internalType": "address",
          "name": "operator",
          "type": "address"
        },
        {
          "internalType": "uint256",
          "name": "tokenId",
          "type": "uint256"
        }
      ],
      "name": "ERC721InsufficientApproval",
      "type": "error"
    },
    {
      "inputs": [
        {
          "internalType": "address",
          "name": "approver",
          "type": "address"
        }
      ],
      "name": "ERC721InvalidApprover",
      "type": "error"
    },
    {
      "inputs": [
        {
          "internalType": "address",
          "name": "operator",
          "type": "address"
        }
      ],
      "name": "ERC721InvalidOperator",
      "type": "error"
    },
    {
      "inputs": [
        {
          "internalType": "address",
          "name": "owner",
          "type": "address"
        }
      ],
      "name": "ERC721InvalidOwner",
      "type": "error"
    },
    {
      "inputs": [
        {
          "internalType": "address",
          "name": "receiver",
          "type": "address"
        }
      ],
      "name": "ERC721InvalidReceiver",
      "type": "error"
    },
    {
      "inputs": [
        {
          "internalType": "address",
          "name": "sender",
          "type": "address"
        }
      ],
      "name": "ERC721InvalidSender",
      "type": "error"
    },
    {
      "inputs": [
        {
          "internalType": "uint256",
          "name": "tokenId",
          "type": "uint256"
        }
      ],
      "name": "ERC721NonexistentToken",
      "type": "error"
    },
    {
      "inputs": [
        {
          "internalType": "address",
          "name": "owner",
          "type": "address"
        }
      ],
      "name": "OwnableInvalidOwner",
      "type": "error"
    },
    {
      "inputs": [
        {
          "internalType": "address",
          "name": "account",
          "type": "address"
        }
      ],
      "name": "OwnableUnauthorizedAccount",
      "type": "error"
    },
    {
      "anonymous": false,
      "inputs": [
        {
          "indexed": true,
          "internalType": "address",
          "name": "owner",
          "type": "address"
        },
        {
          "indexed": true,
          "internalType": "address",
          "name": "approved",
          "type": "address"
        },
        {
          "indexed": true,
          "internalType": "uint256",
          "name": "tokenId",
          "type": "uint256"
        }
      ],
      "name": "Approval",
      "type": "event"
    },
    {
      "anonymous": false,
      "inputs": [
        {
          "indexed": true,
          "internalType": "address",
          "name": "owner",
          "type": "address"
        },
        {
          "indexed": true,
          "internalType": "address",
          "name": "operator",
          "type": "address"
        },
        {
          "indexed": false,
          "internalType": "bool",
          "name": "approved",
          "type": "bool"
        }
      ],
      "name": "ApprovalForAll",
      "type": "event"
    },
    {
      "anonymous": false,
      "inputs": [
        {
          "indexed": false,
          "internalType": "uint256",
          "name": "_fromTokenId",
          "type": "uint256"
        },
        {
          "indexed": false,
          "internalType": "uint256",
          "name": "_toTokenId",
          "type": "uint256"
        }
      ],
      "name": "BatchMetadataUpdate",
      "type": "event"
    },
    {
      "anonymous": false,
      "inputs": [
        {
          "indexed": false,
          "internalType": "uint256",
          "name": "_tokenId",
          "type": "uint256"
        }
      ],
      "name": "MetadataUpdate",
      "type": "event"
    },
    {
      "anonymous": false,
      "inputs": [
        {
          "indexed": true,
          "internalType": "address",
          "name": "minter",
          "type": "address"
        },
        {
          "indexed": false,
          "internalType": "bool",
          "name": "allowed",
          "type": "bool"
        }
      ],
      "name": "MinterUpdated",
      "type": "event"
    },
    {
      "anonymous": false,
      "inputs": [
        {
          "indexed": true,
          "internalType": "address",
          "name": "previousOwner",
          "type": "address"
        },
        {
          "indexed": true,
          "internalType": "address",
          "name": "newOwner",
          "type": "address"
        }
      ],
      "name": "OwnershipTransferred",
      "type": "event"
    },
    {
      "anonymous": false,
      "inputs": [
        {
          "indexed": true,
          "internalType": "address",
          "name": "from",
          "type": "address"
        },
        {
          "indexed": true,
          "internalType": "address",
          "name": "to",
          "type": "address"
        },
        {
          "indexed": true,
          "internalType": "uint256",
          "name": "tokenId",
          "type": "uint256"
        }
      ],
      "name": "Transfer",
      "type": "event"
    },
    {
      "inputs": [
        {
          "internalType": "address",
          "name": "to",
          "type": "address"
        },
        {
          "internalType": "uint256",
          "name": "tokenId",
          "type": "uint256"
        }
      ],
      "name": "approve",
      "outputs": [],
      "stateMutability": "nonpayable",
      "type": "function"
    },
    {
      "inputs": [
        {
          "internalType": "address",
          "name": "owner",
          "type": "address"
        }
      ],
      "name": "balanceOf",
      "outputs": [
        {
          "internalType": "uint256",
          "name": "",
          "type": "uint256"
        }
      ],
      "stateMutability": "view",
      "type": "function"
    },
    {
      "inputs": [
        {
          "internalType": "uint256",
          "name": "tokenId",
          "type": "uint256"
        }
      ],
      "name": "getApproved",
      "outputs": [
        {
          "internalType": "address",
          "name": "",
          "type": "address"
        }
      ],
      "stateMutability": "view",
      "type": "function"
    },
    {
      "inputs": [
        {
          "internalType": "address",
          "name": "owner",
          "type": "address"
        },
        {
          "internalType": "address",
          "name": "operator",
          "type": "address"
        }
      ],
      "name": "isApprovedForAll",
      "outputs": [
        {
          "internalType": "bool",
          "name": "",
          "type": "bool"
        }
      ],
      "stateMutability": "view",
      "type": "function"
    },
    {
      "inputs": [
        {
          "internalType": "address",
          "name": "to",
          "type": "address"
        },
        {
          "internalType": "string",
          "name": "tokenURI",
          "type": "string"
        }
      ],
      "name": "mintReceipt",
      "outputs": [
        {
          "internalType": "uint256",
          "name": "",
          "type": "uint256"
        }
      ],
      "stateMutability": "nonpayable",
      "type": "function"
    },
    {
      "inputs": [
        {
          "internalType": "address",
          "name": "",
          "type": "address"
        }
      ],
      "name": "minters",
      "outputs": [
        {
          "internalType": "bool",
          "name": "",
          "type": "bool"
        }
      ],
      "stateMutability": "view",
      "type": "function"
    },
    {
      "inputs": [],
      "name": "name",
      "outputs": [
        {
          "internalType": "string",
          "name": "",
          "type": "string"
        }
      ],
      "stateMutability": "view",
      "type": "function"
    },
    {
      "inputs": [],
      "name": "owner",
      "outputs": [
        {
          "internalType": "address",
          "name": "",
          "type": "address"
        }
      ],
      "stateMutability": "view",
      "type": "function"
    },
    {
      "inputs": [
        {
          "internalType": "uint256",
          "name": "tokenId",
          "type": "uint256"
        }
      ],
      "name": "ownerOf",
      "outputs": [
        {
          "internalType": "address",
          "name": "",
          "type": "address"
        }
      ],
      "stateMutability": "view",
      "type": "function"
    },
    {
      "inputs": [],
      "name": "renounceOwnership",
      "outputs": [],
      "stateMutability": "nonpayable",
      "type": "function"
    },
    {
      "inputs": [
        {
          "internalType": "address",
          "name": "from",
          "type": "address"
        },
        {
          "internalType": "address",
          "name": "to",
          "type": "address"
        },
        {
          "internalType": "uint256",
          "name": "tokenId",
          "type": "uint256"
        }
      ],
      "name": "safeTransferFrom",
      "outputs": [],
      "stateMutability": "nonpayable",
      "type": "function"
    },
    {
      "inputs": [
        {
          "internalType": "address",
          "name": "from",
          "type": "address"
        },
        {
          "internalType": "address",
          "name": "to",
          "type": "address"
        },
        {
          "internalType": "uint256",
          "name": "tokenId",
          "type": "uint256"
        },
        {
          "internalType": "bytes",
          "name": "data",
          "type": "bytes"
        }
      ],
      "name": "safeTransferFrom",
      "outputs": [],
      "stateMutability": "nonpayable",
      "type": "function"
    },
    {
      "inputs": [
        {
          "internalType": "address",
          "name": "operator",
          "type": "address"
        },
        {
          "internalType": "bool",
          "name": "approved",
          "type": "bool"
        }
      ],
      "name": "setApprovalForAll",
      "outputs": [],
      "stateMutability": "nonpayable",
      "type": "function"
    },
    {
      "inputs": [
        {
          "internalType": "address",
          "name": "minter",
          "type": "address"
        },
        {
          "internalType": "bool",
          "name": "allowed",
          "type": "bool"
        }
      ],
      "name": "setMinter",
      "outputs": [],
      "stateMutability": "nonpayable",
      "type": "function"
    },
    {
      "inputs": [
        {
          "internalType": "bytes4",
          "name": "interfaceId",
          "type": "bytes4"
        }
      ],
      "name": "supportsInterface",
      "outputs": [
        {
          "internalType": "bool",
          "name": "",
          "type": "bool"
        }
      ],
      "stateMutability": "view",
      "type": "function"
    },
    {
      "inputs": [],
      "name": "symbol",
      "outputs": [
        {
          "internalType": "string",
          "name": "",
          "type": "string"
        }
      ],
      "stateMutability": "view",
      "type": "function"
    },
    {
      "inputs": [
        {
          "internalType": "uint256",
          "name": "tokenId",
          "type": "uint256"
        }
      ],
      "name": "tokenURI",
      "outputs": [
        {
          "internalType": "string",
          "name": "",
          "type": "string"
        }
      ],
      "stateMutability": "view",
      "type": "function"
    },
    {
      "inputs": [
        {
          "internalType": "address",
          "name": "from",
          "type": "address"
        },
        {
          "internalType": "address",
          "name": "to",
          "type": "address"
        },
        {
          "internalType": "uint256",
          "name": "tokenId",
          "type": "uint256"
        }
      ],
      "name": "transferFrom",
      "outputs": [],
      "stateMutability": "nonpayable",
      "type": "function"
    },
    {
      "inputs": [
        {
          "internalType": "address",
          "name": "newOwner",
          "type": "address"
        }
      ],
      "name": "transferOwnership",
      "outputs": [],
      "stateMutability": "nonpayable",
      "type": "function"
    }
  ],
  "bytecode": "0x608060405234801561000f575f5ffd5b506040516117c63803806117c683398101604081905261002e91610178565b3382825f61003c8382610261565b5060016100498282610261565b5050506001600160a01b03811661007957604051631e4fbdf760e01b81525f600482015260240160405180910390fd5b6100828161008a565b50505061031b565b600780546001600160a01b038381166001600160a01b0319831681179093556040519116919082907f8be0079c531659141344cd1fd0a4f28419497f9722a3daafe3b4186f6b6457e0905f90a35050565b634e487b7160e01b5f52604160045260245ffd5b5f82601f8301126100fe575f5ffd5b81516001600160401b03811115610117576101176100db565b604051601f8201601f19908116603f011681016001600160401b0381118282101715610145576101456100db565b60405281815283820160200185101561015c575f5ffd5b8160208501602083015e5f918101602001919091529392505050565b5f5f60408385031215610189575f5ffd5b82516001600160401b0381111561019e575f5ffd5b6101aa858286016100ef565b602085015190935090506001600160401b038111156101c7575f5ffd5b6101d3858286016100ef565b9150509250929050565b600181811c908216806101f157607f821691505b60208210810361020f57634e487b7160e01b5f52602260045260245ffd5b50919050565b601f82111561025c57805f5260205f20601f840160051c8101602085101561023a5750805b601f840160051c820191505b81811015610259575f8155600101610246565b50505b505050565b81516001600160401b0381111561027a5761027a6100db565b61028e8161028884546101dd565b84610215565b6020601f8211600181146102c0575f83156102a95750848201515b5f19600385901b1c1916600184901b178455610259565b5f84815260208120601f198516915b828110156102ef57878501518255602094850194600190920191016102cf565b508482101561030c57868401515f19600387901b60f8161c191681555b50505050600190811b01905550565b61149e806103285f395ff3fe608060405234801561000f575f5ffd5b506004361061011c575f3560e01c80638da5cb5b116100a9578063c87b56dd1161006e578063c87b56dd14610251578063cf456ae714610264578063e985e9c514610277578063f2fde38b1461028a578063f46eccc41461029d575f5ffd5b80638da5cb5b146101ff5780639013255e1461021057806395d89b4114610223578063a22cb4651461022b578063b88d4fde1461023e575f5ffd5b806323b872dd116100ef57806323b872dd1461019d57806342842e0e146101b05780636352211e146101c357806370a08231146101d6578063715018a6146101f7575f5ffd5b806301ffc9a71461012057806306fdde0314610148578063081812fc1461015d578063095ea7b314610188575b5f5ffd5b61013361012e366004610fb9565b6102bf565b60405190151581526020015b60405180910390f35b6101506102e9565b60405161013f9190611002565b61017061016b366004611014565b610378565b6040516001600160a01b03909116815260200161013f565b61019b610196366004611046565b61039f565b005b61019b6101ab36600461106e565b6103ae565b61019b6101be36600461106e565b61043c565b6101706101d1366004611014565b61045b565b6101e96101e43660046110a8565b610465565b60405190815260200161013f565b61019b6104aa565b6007546001600160a01b0316610170565b6101e961021e36600461114c565b6104bd565b61015061054d565b61019b6102393660046111aa565b61055c565b61019b61024c3660046111e3565b610567565b61015061025f366004611014565b61057f565b61019b6102723660046111aa565b61068a565b61013361028536600461125a565b6106f0565b61019b6102983660046110a8565b61071d565b6101336102ab3660046110a8565b60096020525f908152604090205460ff1681565b5f6001600160e01b03198216632483248360e11b14806102e357506102e38261075a565b92915050565b60605f80546102f79061128b565b80601f01602080910402602001604051908101604052809291908181526020018280546103239061128b565b801561036e5780601f106103455761010080835404028352916020019161036e565b820191905f5260205f20905b81548152906001019060200180831161035157829003601f168201915b5050505050905090565b5f610382826107a9565b505f828152600460205260409020546001600160a01b03166102e3565b6103aa8282336107e1565b5050565b6001600160a01b0382166103dc57604051633250574960e11b81525f60048201526024015b60405180910390fd5b5f6103e88383336107ee565b9050836001600160a01b0316816001600160a01b031614610436576040516364283d7b60e01b81526001600160a01b03808616600483015260248201849052821660448201526064016103d3565b50505050565b61045683838360405180602001604052805f815250610567565b505050565b5f6102e3826107a9565b5f6001600160a01b03821661048f576040516322718ad960e21b81525f60048201526024016103d3565b506001600160a01b03165f9081526003602052604090205490565b6104b26108e0565b6104bb5f61090d565b565b335f9081526009602052604081205460ff1661051b5760405162461bcd60e51b815260206004820152601860248201527f526563656970744e46543a206e6f742061206d696e746572000000000000000060448201526064016103d3565b60088054905f61052a836112c3565b909155505060085461053c848261095e565b6105468184610977565b9392505050565b6060600180546102f79061128b565b6103aa3383836109c6565b6105728484846103ae565b6104363385858585610a64565b606061058a826107a9565b505f82815260066020526040812080546105a39061128b565b80601f01602080910402602001604051908101604052809291908181526020018280546105cf9061128b565b801561061a5780601f106105f15761010080835404028352916020019161061a565b820191905f5260205f20905b8154815290600101906020018083116105fd57829003601f168201915b505050505090505f61063660408051602081019091525f815290565b905080515f03610647575092915050565b8151156106795780826040516020016106619291906112fe565b60405160208183030381529060405292505050919050565b61068284610b8c565b949350505050565b6106926108e0565b6001600160a01b0382165f81815260096020908152604091829020805460ff191685151590811790915591519182527fb21afb9ce9be0a676f8f317ff0ca072fb89a4f8ce2d1b6fe80f8755c14f1cb19910160405180910390a25050565b6001600160a01b039182165f90815260056020908152604080832093909416825291909152205460ff1690565b6107256108e0565b6001600160a01b03811661074e57604051631e4fbdf760e01b81525f60048201526024016103d3565b6107578161090d565b50565b5f6001600160e01b031982166380ac58cd60e01b148061078a57506001600160e01b03198216635b5e139f60e01b145b806102e357506301ffc9a760e01b6001600160e01b03198316146102e3565b5f818152600260205260408120546001600160a01b0316806102e357604051637e27328960e01b8152600481018490526024016103d3565b6104568383836001610bfc565b5f828152600260205260408120546001600160a01b039081169083161561081a5761081a818486610d00565b6001600160a01b03811615610854576108355f855f5f610bfc565b6001600160a01b0381165f90815260036020526040902080545f190190555b6001600160a01b03851615610882576001600160a01b0385165f908152600360205260409020805460010190555b5f8481526002602052604080822080546001600160a01b0319166001600160a01b0389811691821790925591518793918516917fddf252ad1be2c89b69c2b068fc378daa952ba7f163c4a11628f55a4df523b3ef91a4949350505050565b6007546001600160a01b031633146104bb5760405163118cdaa760e01b81523360048201526024016103d3565b600780546001600160a01b038381166001600160a01b0319831681179093556040519116919082907f8be0079c531659141344cd1fd0a4f28419497f9722a3daafe3b4186f6b6457e0905f90a35050565b6103aa828260405180602001604052805f815250610d64565b5f82815260066020526040902061098e8282611356565b506040518281527ff8e1a15aba9398e019f0b49df1a4fde98ee17ae345cb5f6b5e2c27f5033e8ce79060200160405180910390a15050565b6001600160a01b0382166109f857604051630b61174360e31b81526001600160a01b03831660048201526024016103d3565b6001600160a01b038381165f81815260056020908152604080832094871680845294825291829020805460ff191686151590811790915591519182527f17307eab39ab6107e8899845ad3d59bd9653f200f220920489ca2b5937696c31910160405180910390a3505050565b6001600160a01b0383163b15610b8557604051630a85bd0160e11b81526001600160a01b0384169063150b7a0290610aa6908890889087908790600401611411565b6020604051808303815f875af1925050508015610ae0575060408051601f3d908101601f19168201909252610add9181019061144d565b60015b610b47573d808015610b0d576040519150601f19603f3d011682016040523d82523d5f602084013e610b12565b606091505b5080515f03610b3f57604051633250574960e11b81526001600160a01b03851660048201526024016103d3565b805160208201fd5b6001600160e01b03198116630a85bd0160e11b14610b8357604051633250574960e11b81526001600160a01b03851660048201526024016103d3565b505b5050505050565b6060610b97826107a9565b505f610bad60408051602081019091525f815290565b90505f815111610bcb5760405180602001604052805f815250610546565b80610bd584610d7b565b604051602001610be69291906112fe565b6040516020818303038152906040529392505050565b8080610c1057506001600160a01b03821615155b15610cd1575f610c1f846107a9565b90506001600160a01b03831615801590610c4b5750826001600160a01b0316816001600160a01b031614155b8015610c5e5750610c5c81846106f0565b155b15610c875760405163a9fbf51f60e01b81526001600160a01b03841660048201526024016103d3565b8115610ccf5783856001600160a01b0316826001600160a01b03167f8c5be1e5ebec7d5bd14f71427d1e84f3dd0314c0f7b2291e5b200ac8c7c3b92560405160405180910390a45b505b50505f90815260046020526040902080546001600160a01b0319166001600160a01b0392909216919091179055565b610d0b838383610e0b565b610456576001600160a01b038316610d3957604051637e27328960e01b8152600481018290526024016103d3565b60405163177e802f60e01b81526001600160a01b0383166004820152602481018290526044016103d3565b610d6e8383610e6c565b610456335f858585610a64565b60605f610d8783610ecd565b60010190505f8167ffffffffffffffff811115610da657610da66110c1565b6040519080825280601f01601f191660200182016040528015610dd0576020820181803683370190505b5090508181016020015b5f19016f181899199a1a9b1b9c1cb0b131b232b360811b600a86061a8153600a8504945084610dda57509392505050565b5f6001600160a01b038316158015906106825750826001600160a01b0316846001600160a01b03161480610e445750610e4484846106f0565b806106825750505f908152600460205260409020546001600160a01b03908116911614919050565b6001600160a01b038216610e9557604051633250574960e11b81525f60048201526024016103d3565b5f610ea183835f6107ee565b90506001600160a01b03811615610456576040516339e3563760e11b81525f60048201526024016103d3565b5f8072184f03e93ff9f4daa797ed6e38ed64bf6a1f0160401b8310610f0b5772184f03e93ff9f4daa797ed6e38ed64bf6a1f0160401b830492506040015b6d04ee2d6d415b85acef81000000008310610f37576d04ee2d6d415b85acef8100000000830492506020015b662386f26fc100008310610f5557662386f26fc10000830492506010015b6305f5e1008310610f6d576305f5e100830492506008015b6127108310610f8157612710830492506004015b60648310610f93576064830492506002015b600a83106102e35760010192915050565b6001600160e01b031981168114610757575f5ffd5b5f60208284031215610fc9575f5ffd5b813561054681610fa4565b5f81518084528060208401602086015e5f602082860101526020601f19601f83011685010191505092915050565b602081525f6105466020830184610fd4565b5f60208284031215611024575f5ffd5b5035919050565b80356001600160a01b0381168114611041575f5ffd5b919050565b5f5f60408385031215611057575f5ffd5b6110608361102b565b946020939093013593505050565b5f5f5f60608486031215611080575f5ffd5b6110898461102b565b92506110976020850161102b565b929592945050506040919091013590565b5f602082840312156110b8575f5ffd5b6105468261102b565b634e487b7160e01b5f52604160045260245ffd5b5f5f67ffffffffffffffff8411156110ef576110ef6110c1565b50604051601f19601f85018116603f0116810181811067ffffffffffffffff8211171561111e5761111e6110c1565b604052838152905080828401851015611135575f5ffd5b838360208301375f60208583010152509392505050565b5f5f6040838503121561115d575f5ffd5b6111668361102b565b9150602083013567ffffffffffffffff811115611181575f5ffd5b8301601f81018513611191575f5ffd5b6111a0858235602084016110d5565b9150509250929050565b5f5f604083850312156111bb575f5ffd5b6111c48361102b565b9150602083013580151581146111d8575f5ffd5b809150509250929050565b5f5f5f5f608085870312156111f6575f5ffd5b6111ff8561102b565b935061120d6020860161102b565b925060408501359150606085013567ffffffffffffffff81111561122f575f5ffd5b8501601f8101871361123f575f5ffd5b61124e878235602084016110d5565b91505092959194509250565b5f5f6040838503121561126b575f5ffd5b6112748361102b565b91506112826020840161102b565b90509250929050565b600181811c9082168061129f57607f821691505b6020821081036112bd57634e487b7160e01b5f52602260045260245ffd5b50919050565b5f600182016112e057634e487b7160e01b5f52601160045260245ffd5b5060010190565b5f81518060208401855e5f93019283525090919050565b5f61068261130c83866112e7565b846112e7565b601f82111561045657805f5260205f20601f840160051c810160208510156113375750805b601f840160051c820191505b81811015610b85575f8155600101611343565b815167ffffffffffffffff811115611370576113706110c1565b6113848161137e845461128b565b84611312565b6020601f8211600181146113b6575f831561139f5750848201515b5f19600385901b1c1916600184901b178455610b85565b5f84815260208120601f198516915b828110156113e557878501518255602094850194600190920191016113c5565b508482101561140257868401515f19600387901b60f8161c191681555b50505050600190811b01905550565b6001600160a01b03858116825284166020820152604081018390526080606082018190525f9061144390830184610fd4565b9695505050505050565b5f6020828403121561145d575f5ffd5b815161054681610fa456fea2646970667358221220f3fc9554c1013106afdcb41e85efd95f290ec59d09dcc2a218e113022ecad30264736f6c634300081e0033",
  "linkReferences": {},
  "deployedLinkReferences": {},
  "immutableReferences": {},
  "inputSourceName": "project/contracts/ReceiptNFT.sol",
  "buildInfoId": "solc-0_8_30-1baf38ffe49e7515297ff2bf9f068c5367fc8172"
}