{
  "_format": "hh3-artifact-1",
  "contractName": "ReceiptNFTV2",
  "sourceName": "contracts/ReceiptNFTV2.sol",
  "abi": [
    {
      "inputs": [
        {
          "internalType": "string",
          "name": "name_",
          "type": "string"
        },
        {
          "internalType": "string",
          "name": "symbol_",
          "type": "string"
        }
      ],
      "stateMutability": "nonpayable",
      "type": "constructor"
    },
    {
      "inputs": [
        {
          "internalType": "address",
          "name": "sender",
          "type": "address"
        },
        {
          "internalType": "uint256",
          "name": "tokenId",
          "type": "uint256"
        },
        {
          "internalType": "address",
          "name": "owner",
          "type": "address"
        }
      ],
      "name": "ERC721IncorrectOwner",
      "type": "error"
    },
    {
      "inputs": [
        {
          "internalType": "address",
          "name": "operator",
          "type": "address"
        },
        {
          "internalType": "uint256",
          "name": "tokenId",
          "type": "uint256"
        }
      ],
      "name": "ERC721InsufficientApproval",
      "type": "error"
    },
    {
      "inputs": [
        {
          "internalType": "address",
          "name": "approver",
          "type": "address"
        }
      ],
      "name": "ERC721InvalidApprover",
      "type": "error"
    },
    {
      "inputs": [
        {
          "internalType": "address",
          "name": "operator",
          "type": "address"
        }
      ],
      "name": "ERC721InvalidOperator",
      "type": "error"
    },
    {
      "inputs": [
        {
          "internalType": "address",
          "name": "owner",
          "type": "address"
        }
      ],
      "name": "ERC721InvalidOwner",
      "type": "error"
    },
    {
      "inputs": [
        {
          "internalType": "address",
          "name": "receiver",
          "type": "address"
        }
      ],
      "name": "ERC721InvalidReceiver",
      "type": "error"
    },
    {
      "inputs": [
        {
          "internalType": "address",
          "name": "sender",
          "type": "address"
        }
      ],
      "name": "ERC721InvalidSender",
      "type": "error"
    },
    {
      "inputs": [
        {
          "internalType": "uint256",
          "name": "tokenId",
          "type": "uint256"
        }
      ],
      "name": "ERC721NonexistentToken",
      "type": "error"
    },
    {
      "inputs": [
        {
          "internalType": "address",
          "name": "owner",
          "type": "address"
        }
      ],
      "name": "OwnableInvalidOwner",
      "type": "error"
    },
    {
      "inputs": [
        {
          "internalType": "address",
          "name": "account",
          "type": "address"
        }
      ],
      "name": "OwnableUnauthorizedAccount",
      "type": "error"
    },
    {
      "anonymous": false,
      "inputs": [
        {
          "indexed": true,
          "internalType": "address",
          "name": "owner",
          "type": "address"
        },
        {
          "indexed": true,
          "internalType": "address",
          "name": "approved",
          "type": "address"
        },
        {
          "indexed": true,
          "internalType": "uint256",
          "name": "tokenId",
          "type": "uint256"
        }
      ],
      "name": "Approval",
      "type": "event"
    },
    {
      "anonymous": false,
      "inputs": [
        {
          "indexed": true,
          "internalType": "address",
          "name": "owner",
          "type": "address"
        },
        {
          "indexed": true,
          "internalType": "address",
          "name": "operator",
          "type": "address"
        },
        {
          "indexed": false,
          "internalType": "bool",
          "name": "approved",
          "type": "bool"
        }
      ],
      "name": "ApprovalForAll",
      "type": "event"
    },
    {
      "anonymous": false,
      "inputs": [
        {
          "indexed": false,
          "internalType": "uint256",
          "name": "_fromTokenId",
          "type": "uint256"
        },
        {
          "indexed": false,
          "internalType": "uint256",
          "name": "_toTokenId",
          "type": "uint256"
        }
      ],
      "name": "BatchMetadataUpdate",
      "type": "event"
    },
    {
      "anonymous": false,
      "inputs": [
        {
          "indexed": false,
          "internalType": "uint256",
          "name": "_tokenId",
          "type": "uint256"
        }
      ],
      "name": "MetadataUpdate",
      "type": "event"
    },
    {
      "anonymous": false,
      "inputs": [
        {
          "indexed": true,
          "internalType": "address",
          "name": "previousOwner",
          "type": "address"
        },
        {
          "indexed": true,
          "internalType": "address",
          "name": "newOwner",
          "type": "address"
        }
      ],
      "name": "OwnershipTransferred",
      "type": "event"
    },
    {
      "anonymous": false,
      "inputs": [
        {
          "indexed": true,
          "internalType": "address",
          "name": "from",
          "type": "address"
        },
        {
          "indexed": true,
          "internalType": "address",
          "name": "to",
          "type": "address"
        },
        {
          "indexed": true,
          "internalType": "uint256",
          "name": "tokenId",
          "type": "uint256"
        }
      ],
      "name": "Transfer",
      "type": "event"
    },
    {
      "inputs": [
        {
          "internalType": "address",
          "name": "to",
          "type": "address"
        },
        {
          "internalType": "uint256",
          "name": "tokenId",
          "type": "uint256"
        }
      ],
      "name": "approve",
      "outputs": [],
      "stateMutability": "nonpayable",
      "type": "function"
    },
    {
      "inputs": [
        {
          "internalType": "address",
          "name": "owner",
          "type": "address"
        }
      ],
      "name": "balanceOf",
      "outputs": [
        {
          "internalType": "uint256",
          "name": "",
          "type": "uint256"
        }
      ],
      "stateMutability": "view",
      "type": "function"
    },
    {
      "inputs": [
        {
          "internalType": "uint256",
          "name": "tokenId",
          "type": "uint256"
        }
      ],
      "name": "getApproved",
      "outputs": [
        {
          "internalType": "address",
          "name": "",
          "type": "address"
        }
      ],
      "stateMutability": "view",
      "type": "function"
    },
    {
      "inputs": [
        {
          "internalType": "address",
          "name": "owner",
          "type": "address"
        },
        {
          "internalType": "address",
          "name": "operator",
          "type": "address"
        }
      ],
      "name": "isApprovedForAll",
      "outputs": [
        {
          "internalType": "bool",
          "name": "",
          "type": "bool"
        }
      ],
      "stateMutability": "view",
      "type": "function"
    },
    {
      "inputs": [
        {
          "internalType": "address",
          "name": "to",
          "type": "address"
        },
        {
          "internalType": "string",
          "name": "tokenURI",
          "type": "string"
        }
      ],
      "name": "mintReceipt",
      "outputs": [
        {
          "internalType": "uint256",
          "name": "",
          "type": "uint256"
        }
      ],
      "stateMutability": "nonpayable",
      "type": "function"
    },
    {
      "inputs": [],
      "name": "name",
      "outputs": [
        {
          "internalType": "string",
          "name": "",
          "type": "string"
        }
      ],
      "stateMutability": "view",
      "type": "function"
    },
    {
      "inputs": [],
      "name": "owner",
      "outputs": [
        {
          "internalType": "address",
          "name": "",
          "type": "address"
        }
      ],
      "stateMutability": "view",
      "type": "function"
    },
    {
      "inputs": [
        {
          "internalType": "uint256",
          "name": "tokenId",
          "type": "uint256"
        }
      ],
      "name": "ownerOf",
      "outputs": [
        {
          "internalType": "address",
          "name": "",
          "type": "address"
        }
      ],
      "stateMutability": "view",
      "type": "function"
    },
    {
      "inputs": [],
      "name": "renounceOwnership",
      "outputs": [],
      "stateMutability": "nonpayable",
      "type": "function"
    },
    {
      "inputs": [
        {
          "internalType": "address",
          "name": "from",
          "type": "address"
        },
        {
          "internalType": "address",
          "name": "to",
          "type": "address"
        },
        {
          "internalType": "uint256",
          "name": "tokenId",
          "type": "uint256"
        }
      ],
      "name": "safeTransferFrom",
      "outputs": [],
      "stateMutability": "nonpayable",
      "type": "function"
    },
    {
      "inputs": [
        {
          "internalType": "address",
          "name": "from",
          "type": "address"
        },
        {
          "internalType": "address",
          "name": "to",
          "type": "address"
        },
        {
          "internalType": "uint256",
          "name": "tokenId",
          "type": "uint256"
        },
        {
          "internalType": "bytes",
          "name": "data",
          "type": "bytes"
        }
      ],
      "name": "safeTransferFrom",
      "outputs": [],
      "stateMutability": "nonpayable",
      "type": "function"
    },
    {
      "inputs": [
        {
          "internalType": "address",
          "name": "operator",
          "type": "address"
        },
        {
          "internalType": "bool",
          "name": "approved",
          "type": "bool"
        }
      ],
      "name": "setApprovalForAll",
      "outputs": [],
      "stateMutability": "nonpayable",
      "type": "function"
    },
    {
      "inputs": [
        {
          "internalType": "bytes4",
          "name": "interfaceId",
          "type": "bytes4"
        }
      ],
      "name": "supportsInterface",
      "outputs": [
        {
          "internalType": "bool",
          "name": "",
          "type": "bool"
        }
      ],
      "stateMutability": "view",
      "type": "function"
    },
    {
      "inputs": [],
      "name": "symbol",
      "outputs": [
        {
          "internalType": "string",
          "name": "",
          "type": "string"
        }
      ],
      "stateMutability": "view",
      "type": "function"
    },
    {
      "inputs": [
        {
          "internalType": "uint256",
          "name": "tokenId",
          "type": "uint256"
        }
      ],
      "name": "tokenURI",
      "outputs": [
        {
          "internalType": "string",
          "name": "",
          "type": "string"
        }
      ],
      "stateMutability": "view",
      "type": "function"
    },
    {
      "inputs": [
        {
          "internalType": "address",
          "name": "from",
          "type": "address"
        },
        {
          "internalType": "address",
          "name": "to",
          "type": "address"
        },
        {
          "internalType": "uint256",
          "name": "tokenId",
          "type": "uint256"
        }
      ],
      "name": "transferFrom",
      "outputs": [],
      "stateMutability": "nonpayable",
      "type": "function"
    },
    {
      "inputs": [
        {
          "internalType": "address",
          "name": "newOwner",
          "type": "address"
        }
      ],
      "name": "transferOwnership",
      "outputs": [],
      "stateMutability": "nonpayable",
      "type": "function"
    }
  ],
  "bytecode": "0x608060405234801561000f575f5ffd5b506040516116b83803806116b883398101604081905261002e91610178565b3382825f61003c8382610261565b5060016100498282610261565b5050506001600160a01b03811661007957604051631e4fbdf760e01b81525f600482015260240160405180910390fd5b6100828161008a565b50505061031b565b600780546001600160a01b038381166001600160a01b0319831681179093556040519116919082907f8be0079c531659141344cd1fd0a4f28419497f9722a3daafe3b4186f6b6457e0905f90a35050565b634e487b7160e01b5f52604160045260245ffd5b5f82601f8301126100fe575f5ffd5b81516001600160401b03811115610117576101176100db565b604051601f8201601f19908116603f011681016001600160401b0381118282101715610145576101456100db565b60405281815283820160200185101561015c575f5ffd5b8160208501602083015e5f918101602001919091529392505050565b5f5f60408385031215610189575f5ffd5b82516001600160401b0381111561019e575f5ffd5b6101aa858286016100ef565b602085015190935090506001600160401b038111156101c7575f5ffd5b6101d3858286016100ef565b9150509250929050565b600181811c908216806101f157607f821691505b60208210810361020f57634e487b7160e01b5f52602260045260245ffd5b50919050565b601f82111561025c57805f5260205f20601f840160051c8101602085101561023a5750805b601f840160051c820191505b81811015610259575f8155600101610246565b50505b505050565b81516001600160401b0381111561027a5761027a6100db565b61028e8161028884546101dd565b84610215565b6020601f8211600181146102c0575f83156102a95750848201515b5f19600385901b1c1916600184901b178455610259565b5f84815260208120601f198516915b828110156102ef57878501518255602094850194600190920191016102cf565b508482101561030c57868401515f19600387901b60f8161c191681555b50505050600190811b01905550565b611390806103285f395ff3fe608060405234801561000f575f5ffd5b5060043610610106575f3560e01c8063715018a61161009e578063a22cb4651161006e578063a22cb46514610215578063b88d4fde14610228578063c87b56dd1461023b578063e985e9c51461024e578063f2fde38b14610261575f5ffd5b8063715018a6146101e15780638da5cb5b146101e95780639013255e146101fa57806395d89b411461020d575f5ffd5b806323b872dd116100d957806323b872dd1461018757806342842e0e1461019a5780636352211e146101ad57806370a08231146101c0575f5ffd5b806301ffc9a71461010a57806306fdde0314610132578063081812fc14610147578063095ea7b314610172575b5f5ffd5b61011d610118366004610eab565b610274565b60405190151581526020015b60405180910390f35b61013a61029e565b6040516101299190610ef4565b61015a610155366004610f06565b61032d565b6040516001600160a01b039091168152602001610129565b610185610180366004610f38565b610354565b005b610185610195366004610f60565b610363565b6101856101a8366004610f60565b6103f1565b61015a6101bb366004610f06565b610410565b6101d36101ce366004610f9a565b61041a565b604051908152602001610129565b61018561045f565b6007546001600160a01b031661015a565b6101d361020836600461103e565b610472565b61013a6104a5565b61018561022336600461109c565b6104b4565b6101856102363660046110d5565b6104bf565b61013a610249366004610f06565b6104d7565b61011d61025c36600461114c565b6105e2565b61018561026f366004610f9a565b61060f565b5f6001600160e01b03198216632483248360e11b148061029857506102988261064c565b92915050565b60605f80546102ac9061117d565b80601f01602080910402602001604051908101604052809291908181526020018280546102d89061117d565b80156103235780601f106102fa57610100808354040283529160200191610323565b820191905f5260205f20905b81548152906001019060200180831161030657829003601f168201915b5050505050905090565b5f6103378261069b565b505f828152600460205260409020546001600160a01b0316610298565b61035f8282336106d3565b5050565b6001600160a01b03821661039157604051633250574960e11b81525f60048201526024015b60405180910390fd5b5f61039d8383336106e0565b9050836001600160a01b0316816001600160a01b0316146103eb576040516364283d7b60e01b81526001600160a01b0380861660048301526024820184905282166044820152606401610388565b50505050565b61040b83838360405180602001604052805f8152506104bf565b505050565b5f6102988261069b565b5f6001600160a01b038216610444576040516322718ad960e21b81525f6004820152602401610388565b506001600160a01b03165f9081526003602052604090205490565b6104676107d2565b6104705f6107ff565b565b600880545f9182610482836111b5565b90915550506008546104948482610850565b61049e8184610869565b9392505050565b6060600180546102ac9061117d565b61035f3383836108b8565b6104ca848484610363565b6103eb3385858585610956565b60606104e28261069b565b505f82815260066020526040812080546104fb9061117d565b80601f01602080910402602001604051908101604052809291908181526020018280546105279061117d565b80156105725780601f1061054957610100808354040283529160200191610572565b820191905f5260205f20905b81548152906001019060200180831161055557829003601f168201915b505050505090505f61058e60408051602081019091525f815290565b905080515f0361059f575092915050565b8151156105d15780826040516020016105b99291906111f0565b60405160208183030381529060405292505050919050565b6105da84610a7e565b949350505050565b6001600160a01b039182165f90815260056020908152604080832093909416825291909152205460ff1690565b6106176107d2565b6001600160a01b03811661064057604051631e4fbdf760e01b81525f6004820152602401610388565b610649816107ff565b50565b5f6001600160e01b031982166380ac58cd60e01b148061067c57506001600160e01b03198216635b5e139f60e01b145b8061029857506301ffc9a760e01b6001600160e01b0319831614610298565b5f818152600260205260408120546001600160a01b03168061029857604051637e27328960e01b815260048101849052602401610388565b61040b8383836001610aee565b5f828152600260205260408120546001600160a01b039081169083161561070c5761070c818486610bf2565b6001600160a01b03811615610746576107275f855f5f610aee565b6001600160a01b0381165f90815260036020526040902080545f190190555b6001600160a01b03851615610774576001600160a01b0385165f908152600360205260409020805460010190555b5f8481526002602052604080822080546001600160a01b0319166001600160a01b0389811691821790925591518793918516917fddf252ad1be2c89b69c2b068fc378daa952ba7f163c4a11628f55a4df523b3ef91a4949350505050565b6007546001600160a01b031633146104705760405163118cdaa760e01b8152336004820152602401610388565b600780546001600160a01b038381166001600160a01b0319831681179093556040519116919082907f8be0079c531659141344cd1fd0a4f28419497f9722a3daafe3b4186f6b6457e0905f90a35050565b61035f828260405180602001604052805f815250610c56565b5f8281526006602052604090206108808282611248565b506040518281527ff8e1a15aba9398e019f0b49df1a4fde98ee17ae345cb5f6b5e2c27f5033e8ce79060200160405180910390a15050565b6001600160a01b0382166108ea57604051630b61174360e31b81526001600160a01b0383166004820152602401610388565b6001600160a01b038381165f81815260056020908152604080832094871680845294825291829020805460ff191686151590811790915591519182527f17307eab39ab6107e8899845ad3d59bd9653f200f220920489ca2b5937696c31910160405180910390a3505050565b6001600160a01b0383163b15610a7757604051630a85bd0160e11b81526001600160a01b0384169063150b7a0290610998908890889087908790600401611303565b6020604051808303815f875af19250505080156109d2575060408051601f3d908101601f191682019092526109cf9181019061133f565b60015b610a39573d8080156109ff576040519150601f19603f3d011682016040523d82523d5f602084013e610a04565b606091505b5080515f03610a3157604051633250574960e11b81526001600160a01b0385166004820152602401610388565b805160208201fd5b6001600160e01b03198116630a85bd0160e11b14610a7557604051633250574960e11b81526001600160a01b0385166004820152602401610388565b505b5050505050565b6060610a898261069b565b505f610a9f60408051602081019091525f815290565b90505f815111610abd5760405180602001604052805f81525061049e565b80610ac784610c6d565b604051602001610ad89291906111f0565b6040516020818303038152906040529392505050565b8080610b0257506001600160a01b03821615155b15610bc3575f610b118461069b565b90506001600160a01b03831615801590610b3d5750826001600160a01b0316816001600160a01b031614155b8015610b505750610b4e81846105e2565b155b15610b795760405163a9fbf51f60e01b81526001600160a01b0384166004820152602401610388565b8115610bc15783856001600160a01b0316826001600160a01b03167f8c5be1e5ebec7d5bd14f71427d1e84f3dd0314c0f7b2291e5b200ac8c7c3b92560405160405180910390a45b505b50505f90815260046020526040902080546001600160a01b0319166001600160a01b0392909216919091179055565b610bfd838383610cfd565b61040b576001600160a01b038316610c2b57604051637e27328960e01b815260048101829052602401610388565b60405163177e802f60e01b81526001600160a01b038316600482015260248101829052604401610388565b610c608383610d5e565b61040b335f858585610956565b60605f610c7983610dbf565b60010190505f8167ffffffffffffffff811115610c9857610c98610fb3565b6040519080825280601f01601f191660200182016040528015610cc2576020820181803683370190505b5090508181016020015b5f19016f181899199a1a9b1b9c1cb0b131b232b360811b600a86061a8153600a8504945084610ccc57509392505050565b5f6001600160a01b038316158015906105da5750826001600160a01b0316846001600160a01b03161480610d365750610d3684846105e2565b806105da5750505f908152600460205260409020546001600160a01b03908116911614919050565b6001600160a01b038216610d8757604051633250574960e11b81525f6004820152602401610388565b5f610d9383835f6106e0565b90506001600160a01b0381161561040b576040516339e3563760e11b81525f6004820152602401610388565b5f8072184f03e93ff9f4daa797ed6e38ed64bf6a1f0160401b8310610dfd5772184f03e93ff9f4daa797ed6e38ed64bf6a1f0160401b830492506040015b6d04ee2d6d415b85acef81000000008310610e29576d04ee2d6d415b85acef8100000000830492506020015b662386f26fc100008310610e4757662386f26fc10000830492506010015b6305f5e1008310610e5f576305f5e100830492506008015b6127108310610e7357612710830492506004015b60648310610e85576064830492506002015b600a83106102985760010192915050565b6001600160e01b031981168114610649575f5ffd5b5f60208284031215610ebb575f5ffd5b813561049e81610e96565b5f81518084528060208401602086015e5f602082860101526020601f19601f83011685010191505092915050565b602081525f61049e6020830184610ec6565b5f60208284031215610f16575f5ffd5b5035919050565b80356001600160a01b0381168114610f33575f5ffd5b919050565b5f5f60408385031215610f49575f5ffd5b610f5283610f1d565b946020939093013593505050565b5f5f5f60608486031215610f72575f5ffd5b610f7b84610f1d565b9250610f8960208501610f1d565b929592945050506040919091013590565b5f60208284031215610faa575f5ffd5b61049e82610f1d565b634e487b7160e01b5f52604160045260245ffd5b5f5f67ffffffffffffffff841115610fe157610fe1610fb3565b50604051601f19601f85018116603f0116810181811067ffffffffffffffff8211171561101057611010610fb3565b604052838152905080828401851015611027575f5ffd5b838360208301375f60208583010152509392505050565b5f5f6040838503121561104f575f5ffd5b61105883610f1d565b9150602083013567ffffffffffffffff811115611073575f5ffd5b8301601f81018513611083575f5ffd5b61109285823560208401610fc7565b9150509250929050565b5f5f604083850312156110ad575f5ffd5b6110b683610f1d565b9150602083013580151581146110ca575f5ffd5b809150509250929050565b5f5f5f5f608085870312156110e8575f5ffd5b6110f185610f1d565b93506110ff60208601610f1d565b925060408501359150606085013567ffffffffffffffff811115611121575f5ffd5b8501601f81018713611131575f5ffd5b61114087823560208401610fc7565b91505092959194509250565b5f5f6040838503121561115d575f5ffd5b61116683610f1d565b915061117460208401610f1d565b90509250929050565b600181811c9082168061119157607f821691505b6020821081036111af57634e487b7160e01b5f52602260045260245ffd5b50919050565b5f600182016111d257634e487b7160e01b5f52601160045260245ffd5b5060010190565b5f81518060208401855e5f93019283525090919050565b5f6105da6111fe83866111d9565b846111d9565b601f82111561040b57805f5260205f20601f840160051c810160208510156112295750805b601f840160051c820191505b81811015610a77575f8155600101611235565b815167ffffffffffffffff81111561126257611262610fb3565b61127681611270845461117d565b84611204565b6020601f8211600181146112a8575f83156112915750848201515b5f19600385901b1c1916600184901b178455610a77565b5f84815260208120601f198516915b828110156112d757878501518255602094850194600190920191016112b7565b50848210156112f457868401515f19600387901b60f8161c191681555b50505050600190811b01905550565b6001600160a01b03858116825284166020820152604081018390526080606082018190525f9061133590830184610ec6565b9695505050505050565b5f6020828403121561134f575f5ffd5b815161049e81610e9656fea26469706673582212202d291e706d2ed116eb8687f63f35d45dcc35b943c48e3cd8f6f43d9a70c19af864736f6c634300081e0033",
  "linkReferences": {},
  "deployedLinkReferences": {},
  "immutableReferences": {},
  "inputSourceName": "project/contracts/ReceiptNFTV2.sol",
  "buildInfoId": "solc-0_8_30-9b79a4c6c8693954946bc7608ca1462b6054e77d"
}